:020000024000BC
:1000000048E50320C92504009D170600B525040016
:10001000B5250400B5250400B5250400B525040068
:100020000000000000000000000000003127040074
:10003000B525040000000000D1260400B525040009
:10004000B1280400B1280400B1280400B12804003C
:10005000B1280400B1280400B1280400B12804002C
:10006000B1280400B1280400B1280400B12804001C
:10007000B1280400B1280400B1280400B12804000C
:10008000B1280400B1280400B1280400B1280400FC
:10009000B1280400B1280400B1280400B1280400EC
:1000A000B1280400B1280400B1280400B1280400DC
:1000B000B1280400B1280400B1280400B1280400CC
:1000C000B1280400B1280400B1280400B1280400BC
:1000D000B1280400B1280400B1280400B1280400AC
:1000E000B1280400B1280400B1280400B12804009C
:1000F000B1280400B1280400B1280400B12804008C
:10010000B1280400B1280400B1280400B12804007B
:10011000B1280400B1280400B1280400B12804006B
:10012000B1280400B1280400B1280400B12804005B
:10013000B1280400B1280400B1280400B12804004B
:10014000B1280400B1280400B1280400B12804003B
:04015000B1280400CE
:100158007BB972B90029BEBF00204FF0004106E00C
:1001680008BF00281CBF6FF000414FF0FF3000F0BF
:1001780057B8ADF1080C6DE904CE002909DB002B56
:100188001ADB00F061F8DDF804E0DDE9022304B0D1
:100198007047404261EB4101002B1BDB00F054F833
:1001A800DDF804E0DDE9022304B0404261EB4101DF
:1001B800524263EB43037047524263EB430300F040
:1001C80043F8DDF804E0DDE9022304B0404261EBC6
:1001D80041017047524263EB430300F035F8DDF804
:1001E80004E0DDE9022304B0524263EB43037047A5
:1001F80053B94AB9002908BF00281CBF4FF0FF3186
:100208004FF0FF3000F00CB8ADF1080C6DE904CEEA
:1002180000F01AF8DDF804E0DDE9022304B07047C5
:10022800704700BF10F8012B11F8013B012A28BFC5
:100238009A42F7D0D01A7047034613F8012B002AC8
:10024800FBD1181A013870472DE9F04786468C46CD
:100258000846089E154674461946002B40F0C18092
:100268008542B2FA82F245D94AB1C2F1200300FAB6
:1002780002FC954094402EFA03F343EA0C0C4FEA33
:10028800154EA8B2230CBCFBFEF80EFB18CC08FBDD
:1002980000F943EA0C43994528D9EB1808F1FF37D0
:1002A80004D2994502D9A8F102072B44A3EB09030C
:1002B800A4B2B3FBFEFC0EFB1C330CFB00F044EABB
:1002C8000344A04214D92C190CF1FF3304D2A042E4
:1002D80002D9ACF102032C44241A43EA07401EB1A8
:1002E800D440002334607360BDE8F0874746DDE7FB
:1002F8006346F1E792BB431B01214FEA154EAFB2AB
:10030800200CB3FBFEFC0EFB1C330CFB07F840EA89
:100318000343984561D9EB180CF1FF3004D2984596
:1003280002D9ACF102002B44A3EB0803A4B2B3FB3F
:10033800FEFC0EFB1C330CFB07F744EA0344A74200
:100348004DD92C190CF1FF3304D2A74202D9ACF1D4
:1003580002032C44E41B43EA0040C0E7C2F1200337
:100368009540944020FA03F12EFA03F34FEA154E14
:100378009040AFB20343B1FBFEFC0EFB1C10190CFE
:100388000CFB07F841EA0041884522D969180CF1AD
:10039800FF3004D2884502D9ACF102002944A1EB10
:1003A80008019BB2B1FBFEFC0EFB1C110CFB07F70E
:1003B80043EA01439F420ED9EB180CF1FF3104D2F6
:1003C8009F4202D9ACF102012B44DB1B41EA0041F8
:1003D80093E76046E3E76146F7E76046A4E76346CC
:1003E800B8E7834206D916B9002108467CE7C6E972
:1003F80000E0F9E7B3FA83F78FB9834201D3724576
:1004080008D8BEEB020460EB030301209C461EB92A
:10041800002169E73846FAE7C6E9004CF8E7C7F172
:10042800200CBB400EFA07F522FA0CF42EFA0CF158
:10043800BA401C4320FA0CF3B8404FEA1449014370
:100448001FFA84FEB3FBF9F809FB18300B0C08FB04
:100458000EFA43EA00439A4540D9E31808F1FF3001
:1004680004D29A4502D9A8F102002344A3EB0A0357
:1004780089B2B3FBF9F809FB183308FB0EFE41EA11
:1004880003418E452CD9611808F1FF3304D28E45FB
:1004980002D9A8F10203214443EA0040A1EB0E016E
:1004A800A0FB02984145CE46434602D306D14D45AE
:1004B80004D20138B9EB020E68EB0403002EA7D072
:1004C800B5EB0E0261EB030101FA0CFC22FA07F30B
:1004D800F9404CEA0303C6E9003199E74046C5E70D
:1004E8004346D9E7000000002DE9F04F93F810804B
:1004F8001F46DB6887B0B8F17D0F81460E4615466A
:100508000469039300F22C8108F1020304F2915A62
:1005180042465046039984F8903534F0DAFC04F5E5
:10052800AF6B58461DF0BCFB022E53D005D9F31E05
:10053800012B6AD96FF08505ADE00023ADF81530C1
:1005480095F85B3006F00106C3F34002C3F380035D
:100558008DF8113001238DF81330874B04A993F8D7
:100568003C3604F5B2608DF810208DF812608DF8D5
:10057800143008F02FFD002800F091807E4BD3F84E
:1005880034361BB13A460021484698474FF0FF33AE
:100598004FF0FF3258461DF05DFB42465146039826
:1005A80034F097FC94F83A2695F85B3062F34103EF
:1005B80085F85B3094F83B26DBB262F3820385F85A
:1005C8005B3094F81036052B69D8DFE803F06B62CE
:1005D800C6CC68C60023ADF8143095F85B3004A982
:1005E800C3F34002C3F380038DF8113001238DF863
:1005F8001230614B04F5B26093F83C368DF8102048
:100608008DF8133008F098FCB5E70023CDF81330C7
:1006180095F85B30C3F34002C3F380038DF81130C3
:10062800331F5E425E418DF810208DF8126008F08D
:1006380019FC01238DF814304F4B8DF8130093F8F3
:100648003C36D5E908028DF815304C4B83424FF003
:100658000203934118D34A4BA0FB030103FB021189
:10066800AB6AC01841F100014FF47A720023FFF71A
:100678006FFD34F08BFB0B4604A90246009104F58C
:10068800B26008F0F7FC76E74FF0FF306FF00041FA
:10069800EAE76FF00F05284607B0BDE8F08F6FF066
:1006A8000405F8E7D4F81C56002DF4D0D4F8203609
:1006B800D4F8242613434AD0002200232D7820683A
:1006C800CDE90023002329461A4603F00DFD06460E
:1006D80000283FD0D4F81C162A46013122F01EFF0C
:1006E800002831DB94F828364FF47A7586F85930AB
:1006F80094F92936AE339BB2FE2B28BFFE2386F829
:100708005A30D4F82006D4F82476A0FB050118A3A3
:10071800D3E9002305FB0711FFF71AFDC6E9080115
:10072800B262304622F084FC3146206806F060FC54
:100738000025304622F030FCD4F81C0608F0EEFC08
:100748000023C4F81C36A6E76FF00B05F1E76FF03D
:100758002205F1E76FF00B05EEE76FF022059AE747
:100768006FF0790597E76FF0680594E7AFF30080BD
:1007780000CA9A3B00000000080B0320037DC12536
:1007880000CA9A3B000000002DE9F34706464FF0E7
:10079800FF384FF0FF3900F56E7A4FF0FF324FF017
:1007A800FF3350461DF0F0F9436804461F780023D4
:1007B80039461A46CDE90089306803F095FC61682E
:1007C8003A460131054622F0A9FE0746002835D1F0
:1007D800237C4FF47A7185F8593094F91130AE338F
:1007E8009BB2FE2B28BFFE2385F85A30A27C95F8D1
:1007F8005B3062F3000385F85B30A068D4F80CE046
:10080800A0FB010C12A3D3E9002301FB0EC1FFF7E3
:100818009FFCC5E90801AA62E27C95F85B3029468D
:1008280062F3C30385F85B30306821F09DFB002834
:1008380004DB6068676008F071FCAEE7002360685D
:10084800636008F06BFC284622F0A6FBA5E700BF12
:1008580000CA9A3B000000002DE9F047484C49487F
:100868002368494F5B689847484EBB883268023B0B
:10087800138223688246B8795D6906F027FB014632
:100888004048A8473B7F424DC3F30002D5F800809B
:10089800C3F300135B0043EA820398F85B201AF461
:1008A800807F22F0060243EA020388F85B3035D0E5
:1008B8007869002832D03B6900EB030906F0E4FFB1
:1008C800A9EB0003002B24DB814500D201314FF452
:1008D8007A7C29A3D3E90023A9FB0C090CFB01911D
:1008E800FFF736FCC8E90801C8F82820B87906F0EF
:1008F8000DFB042123682A689C6933682148A047B6
:10090800431D21D008B310F1230F0CBF0E200F2078
:100918001BE0814528BF01F1FF31D8E7397FB8795D
:1009280011F004071ED006F0F1FA1AF0100F236830
:1009380004D09C69022133682A68DFE79B68114864
:10094800984748B1421DDED10B20124B1870BDE804
:10095800F047042006F00ABB236801469C692A6810
:100968003368CBE706F0D2FA236839469C692A68CF
:100978003368C3E7AFF3008000CA9A3B0000000069
:1009880078850320F0550700F01203207C850320AA
:1009980080850320E6B2032070B598B0064621F0A2
:1009A800C9F826220446002101A834F0B9FA05A99D
:1009B800194825F0ABFA41F2AC73ADF826300023A4
:1009C8000BA91A46204625F07EFB0146D8B92046D9
:1009D80025F06BFB05463046FFF72EFC314682B208
:1009E800284625F0D7FA014668B90BA92A462046B9
:1009F80001AB25F072FB014628B90BA9204625F06A
:100A080067FB014620B105481EF0C8FD18B070BD4F
:100A180003481EF035FEF9E7065F07000E5F070082
:100A2800225F070010B50A78022A02D0052A1ED0D4
:100A380010BDCB68012BFBD1D1E90123D35C312B4D
:100A480007D10F481FF09FFB0E48BDE81040FFF785
:100A5800A3BF322B04D10C481FF095FB0B48F4E7D9
:100A6800332BE5D10A481FF08EFB0A48EDE783686F
:100A78000A22DC680849A446BDE8104064236047A0
:100A8800885907000C5F070080590700415F07007D
:100A980078590700435F0700C8B2032038B5214CD6
:100AA800206833F0A3FC20B91F481FF035FE012051
:100AB80038BD1E4833F09AFC08B91D48F5E71D48B3
:100AC8001FF047FB0028F2DB1B481FF042FB002801
:100AD800EDDB1A481FF03DFB0028E8DB206883683F
:100AE8001B68002BE3D00022154998470028DED167
:100AF800206883686D225D6812494FF0FF33A8476C
:100B08000028D4D1206883680A22DC680E4964234F
:100B1800A0470028CBD100214FF4004033F0CAFF92
:100B2800F9E700BF00000320455F07006455070090
:100B38005D5F07008859070080590700785907004A
:100B48002D0A040010020320C8B2032010B5094C76
:100B58000A44914200D110BD11F8013B58400309E5
:100B6800E35C0001C0B243401809205C1B01DBB202
:100B78005840EEE7785F0700014B1B68184700BF35
:100B880004000320014B1860704700BF04000320D5
:100B980007B50B46002102460091034800F080F893
:100BA80003B05DF804FB00BF810B040030B50025DD
:100BB80087B0CDE903010446009503A905480595CA
:100BC80000F06EF8DDE904309842B8BF255407B04C
:100BD80030BD00BFFD060600F0B5024601680A27D1
:100BE8000020074E0B461C780131355D6D0701D496
:100BF8001360F0BD07FB0043A3F13000F2E700BF2C
:100C0800266707002DE9F84F15469A46D378234AF8
:100C18006F2B12F803B081460F460BF0030B2BD055
:100C280026D8582B0CBF10260A26DDF82880324615
:100C3800002348463946FFF7DBFA092A08F1FF384E
:100C4800D4B21ED83034B145E4B277F1000788F841
:100C5800004001D3D04511D82B789B0605D5082E26
:100C680015D1AB7843F00803AB704046BDE8F88F68
:100C780003F0F703702BD5E70826D6E781460F4621
:100C8800D5E7BBF1010F0CBF37345734DBE7102E23
:100C9800EBD1AB7843F01003E6E700BF2667070007
:100CA8002DE9F04F8A4616461C46002597B003905A
:100CB800307808B9284655E325280AD05146039BC1
:100CC80098470028C0F24E83731C01350493049E94
:100CD800EEE71822002110A834F022F97378252BAA
:100CE80000F0A380002398469E469C461846711C37
:100CF8000F4611F8012B2B2A00F0C68000F2BD80A8
:100D0800202A00F0C480232A00F0C4802BB19DF86B
:100D1800483043F040038DF84830B8F1000F05D053
:100D28009DF8483043F020038DF84830BEF1000F9D
:100D380005D09DF8483043F010038DF84830BCF1D9
:100D4800000F05D09DF8483043F008038DF848306F
:100D580028B19DF8483043F004038DF848309DF8D9
:100D6800483003F04401442903D16FF386138DF80A
:100D780048309DF848302A2A43F0800309978DF8B7
:100D8800483040F08C809DF8493043F001038DF8DD
:100D980049307B1C1A782E2A0CBF012100219DF8AE
:100DA800492061F341028DF849200CD15A1C09925F
:100DB8005A782A2A40F083809DF84920023342F06D
:100DC80004028DF849201A786C2A00F0A48000F2F9
:100DD8008680682A00F08C806A2A00F0A5804C2A58
:100DE80000F0AA801A4612F8013B782B04928DF87D
:100DF8004B309DF8492000F217816D2B00F2A98035
:100E0800692B00F21181572B00F2BE80412B03D0D1
:100E1800453B022B00F2088104229DF84A3062F318
:100E280002038DF84A300123CAE08DF84B30B31C19
:100E380004939DF84930D90740F1FD8054F8048B9C
:100E4800B8F1000F07DA9DF84820C8F1000842F011
:100E580004028DF848205A0740F1F68054F804BB84
:100E6800BBF1000F80F2F5809DF849306FF3410324
:100E78008DF849304FF0FF3BEBE02D2A0DD0302A9A
:100E88007FF444AF012333E74FF0010C30E74FF014
:100E9800010E2DE74FF001082AE7012028E709A8ED
:100EA800FFF79AFE099BBB423FF474AF9DF84820B8
:100EB8001390C00F60F341028DF848206AE709A833
:100EC800FFF78AFE9DF848301490C3F3400242EAC7
:100ED800D07262F341038DF84830099B73E7742A96
:100EE80026D07A2A7FF47EAF06219DF849200CE0AF
:100EF8005A78682A9DF8492006D1012161F3C60273
:100F08008DF8492002336DE7022161F3C6028DF89E
:100F18004920013366E75A786C2A9DF8492001D1A7
:100F28000421EBE70321F0E705219DF84920ECE7D0
:100F380007219DF84920E8E7BDF8482022F4F0424F
:100F480022F0020242F4804242F00202ADF8482048
:100F5800DFE76E3BD9B201238B4040F282410B425E
:100F680038D113F0240F52D1DF075DD503219DF846
:100F78004A3061F302038DF84A3002F07803A3F196
:100F88004000434243411BE00120A3F15801C9B28C
:100F980000FA01F111F4624F7FF43EAF40F6010709
:100FA80039421DD111F4043F3ED09DF84A3060F318
:100FB800020302F07802402A8DF84A3034D0002328
:100FC8009DF84820C2F340010B4363F341028DF8BA
:100FD80048202EE702219DF84A3061F30203E8E732
:100FE80002209DF84A1002F0780260F30201402ABC
:100FF8008DF84A1002BF9DF8481041F001018DF8A4
:101008004810632BDBD1131E18BF0123D8E7032137
:101018009DF84A3012F0780F61F302038DF84A30D8
:1010280014BF01230023CBE79DF8483043F00103A8
:101038008DF84830C3E79DF94820002AACBF4FF02F
:10104800FF38DDF84C8006E79F077FF513AFDDF822
:1010580050B00023CDE913339DF84A309DF849106C
:1010680003F00703012BC1F3C30132D1CB1E042BBC
:1010780004D8DFE803F02045452020002368012933
:101088004FEAE372CDE910321BD19DF94030DA17EF
:10109800CDE9103204349DF8483013F003074FD0DF
:1010A80032465146049B03981FF05AFB0028C0F2B1
:1010B800598105440BE654F8043BDA17CDE91032A0
:1010C800E9E70229E6D11AB243F3C033CDE9102388
:1010D800E0E7022B24D1CB1E042B04D8DFE803F071
:1010E80018101018180001294FF0000254F8043B9A
:1010F80014D00229CDE91032CDD19BB21093CAE7A2
:10110800073424F00704F4E80223CDE91023C2E7EA
:1011180054F8043B109300231193BCE7DBB2CDE7EE
:10112800042B08D1073424F00704D4E90023083439
:10113800CDE91023AFE7032BADD154F8043BDDE72D
:101148009DF84B0078283FF6C2AD62281ED82528A6
:1011580050D058287FF4BBADDDE910010DF13E03F6
:10116800009312AA0AABFFF74DFDBBF1000F8146B1
:1011780080F2C180B9F1000F3FF4A9AD0DF13E0630
:10118800A6EB0903002F7BD0013379E063381528DB
:101198003FF69DAD01A252F820F000BF771204007F
:1011A800D5120400D70C0400D70C0400D70C040097
:1011B800D70C0400D5120400D70C0400D70C040087
:1011C800D70C0400D70C040021130400F912040002
:1011D80035120400D70C0400D70C04000D120400CB
:1011E800D70C0400F9120400D70C0400D70C040033
:1011F800F91204005146039B98470028C0F2B280B8
:10120800013564E5BBF1000FDDF840900ADB594673
:10121800484633F04BFFB9F1000F3FF458AD09EBE6
:10122800000620E04846FFF707F8F8E7109800287E
:1012380000F086800DF13E060AAB0021009612AA46
:10124800FFF7E0FCBDF84A30BBF1000F03F0EF03F5
:1012580043F4F04343F010038146ADF84A3049DACD
:1012680000283FF434AD0027A6EB090308E0109BE3
:1012780000278DF8283001230DF129060DF12809E2
:101288009DF84A1011F0100206925FD00233139AAB
:10129800134405924A0644BF14995B18B8F1000F2D
:1012A8006DDDA8EB03089DF848305807C3F3800BA1
:1012B80065D4590659D53FB151463846039B9847DE
:1012C80000284FDB5F46013530234FE01E075ABF29
:1012D800C3F300135F012B27DDE91023002BBFF6B2
:1012E8003BAF524263EB43032D27CDE9102333E78D
:1012F800002731E700279DF848100DF13E03A3EBC6
:1013080009036FF386119B458DF848107FF632AFBD
:10131800ABEB030313932DE7109B07293FF6D7ACDC
:10132800DFE801F00C04060C08080C0C1D70CEE474
:101338001D80CCE4EA17C3E90052C8E41D60C6E486
:10134800304E07460523A6F1050999E7080748BF67
:1013580001339CE7184607935146039B984700289A
:10136800079B04DA17B0BDE8F08F2023C34659461F
:1013780000290BF1FF3BEDDC4544D8466D1A37B127
:1013880051463846039B98470028EBDB01359DF80A
:101398004A30DA0601D41B0706D551463020039B94
:1013A80098470028DEDB0135069B3BB151469DF886
:1013B8004B00039B98470028D4DB0135059F2F4439
:1013C80006E051463020039B98470028CADB0135C8
:1013D8007B1B002BF5DC33464A46514603981FF029
:1013E800BFF90028BEDB0544A844A8EB0503002B81
:1013F8007FF76DAC51462020039B98470028B1DB4E
:101408000135F2E78D5F07002DE9F047858B04462B
:101418002807904611D4022905F0070540F0CC8032
:1014280020461FF0B4F978B10138A18B042811D8EF
:10143800DFE800F0C2106D85950001290CBF45F06A
:10144800100545F02005A58388F31188BFF36F8F39
:10145800BDE8F08701F0070AAA4500F0A58000273B
:10146800B9463E46A368002B00F0BC8041F0080155
:10147800A18388F31188BFF36F8FA168002900F05A
:10148800BA800D68002900F0B680334652462046DF
:10149800D1F80480C047002D76D02B6829461D4618
:1014A800F0E701F007035A1F012A1BD8002221F098
:1014B8000701062B276889B2C4E9002209D13B46F7
:1014C80003E0E28B0132E2831B68002BF9D141F083
:1014D80002012046A1831FF05AF900287AD041F072
:1014E800200176E0042B0AD121F0070189B22046B9
:1014F800A1831FF04CF910B141F02001A183A18B09
:1015080001F0070AAA454FD00027B946AAE7236980
:1015180021F0070141F00601062DD3F80090A183C0
:101528002DD1B9F1000F3FD041F00801A18388F314
:101538001188BFF36F8F20463949C84729E021F049
:101548000701236941F0040189B2042DD3F80490FE
:10155800A183E6D000274FF0040A3E4682E721F037
:101568000701236941F0050189B2052DD3F80890D8
:10157800A183D6D000274FF0050A3E4672E7002720
:101588004FF0060A3E466DE72B4687E7B9F1000F94
:10159800D1D1EFF31188202383F31288BFF36F8F23
:1015A800A38B23F00803A383A58BEA062ED525F089
:1015B8001003A38305F00705A669A18B002EBFF6CB
:1015C80070AF00232768C4E9003321F0070141F018
:1015D8000101A183A18B4FF0000901F0070AAA4578
:1015E8007FF440AF002F9CD041F00801A18388F31D
:1015F8001188BFF36F8F002FC8D03D683946334636
:10160800524620461FF0EFF82F46F4E7AB067FF569
:101618001BAF25F02003A38305F0070500E700BFF3
:101628001B0806002DE9F7430F4606460821C06A45
:101638001FF020FA80463C68DFF84890241A3C6086
:1016480004EA0905AC4203D8002003B0BDE8F083E2
:1016580008236A46214630461FF0A4F90028F4D131
:10166800694630461FF010FA40B1BDF80230BDF8A7
:10167800042005EA090513441D443C60A4EB080452
:10168800E0E700BF0000FFFF73B504464FF6FF72A6
:10169800C06A08211FF0EEF9002563680F4EADF807
:1016A80000208DF80620A289191833401344181A0F
:1016B80060606846ADF80210ADF804501FF0D1F92B
:1016C800694620461FF0A0FA2046211D1FF0A3F905
:1016D800284663683340A36002B070BD0000FFFF76
:1016E8002DE9F047044688B000F11407384632F077
:1016F8007FFFA06A8368DB689847E06228B96FF0CB
:101708001505284608B0BDE8F087A06A8368DB683D
:1017180098470368013B1F2BF1D8A06A216805AAE6
:1017280022F0E3FA0028EAD1A589002DE7D0069B2C
:10173800B5FBF3F203FB1255002DE0D1E389012B31
:10174800DDD9E36A009593F805904FF0FF334FF029
:10175800FF3238461CF050F90821E06A1FF08AF978
:10176800A8460646E3891FFA85FA534508D8E3894F
:10177800434523D138461CF0B7F96FF02C05C0E774
:10178800A1892B04891B13FA81F14A4608232046B4
:1017980000911FF015F978B1694620461FF03BF912
:1017A80008F1010808234A46204600991FFA88F8DC
:1017B8001FF006F90028DAD00135D3E753450BD1DD
:1017C800009908234A462046891B1FF0F9F818B9E2
:1017D800694620461FF01FF969462046FFF722FF99
:1017E800054618B138461CF07FF98AE7009B4FEA96
:1017F80013484FEA08486360C4F80880D4E9011325
:1018080099420FD30823204601AA1FF0CBF80546BA
:101818000028E7D101AB13F8012B914533D10135ED
:10182800082DF8D1636869461B0C1B0420460093F9
:101838001FF0F1F84A462046A38900991FF0C0F826
:10184800051ECFDB636876D04FF6FF7906EB0308F9
:10185800A3891FFA88F29B1B9A42CDF800802ED3E9
:1018680000236168002B43D0090C0904204600912D
:1018780069461FF0D0F8204600991FF0D9F80546B0
:10188800002D74D0AEE7204601A91FF0FDF862686C
:1018980010B9921B6260B1E7BDF80850BDF8061098
:1018A800E06AC4F8088029441FF0E4F840449042F4
:1018B800A060EED1002DECD06FF01C0568E0082385
:1018C8004146204603AA1FF06DF80546002889D135
:1018D800204603A91FF0D8F830B1BDF80C304B45AD
:1018E80002D1BDF810300BB1B044B1E70123B8E71D
:1018F80020461FF09DF8054600287FF473AF636803
:10190800264AA18913400B44A3EB460363601340A6
:101918002046A3601FF0A0F9B1E74A4620465B1AAB
:101928001FF04EF8051EFFF65DAF08D0E26AA36807
:1019380012681344A360D4E901318B42EDD8616881
:10194800A38901EB46029A429AD1DFF85080A26837
:1019580001EA08039A4293D020461FF069F8054629
:1019680000287FF43FAF636803EA0803A360A389F4
:10197800A288A3EB46039A4206D038461CF0B4F876
:10198800012300252374BCE620461FF04EF90546C6
:1019980038461CF0A9F8002DF2D0B2E60000FFFF8F
:1019A800034A13680BB9526813600020704700BFE0
:1019B8000800032030B50C460E4985B00291D0F8D6
:1019C800D4110546CDE9003100F1F0014FF0FF33A5
:1019D800204609F05DFA50B9012384F86C30D5F837
:1019E800D03123B1204605B0BDE83040184705B0D6
:1019F80030BD00BFD511060038B50C461146054666
:101A08001FF0E6FB034638B9284604491FF0E0FBFF
:101A180003460020236038BD0120FBE78C640700E3
:101A28002DE9F04F012381460569466887B005F521
:101A38005F77D7E8EF2F002A03D1C7E8E13F0029F5
:101A4800F7D10CBF1A46002240F0B080B368B16AE3
:101A580005F5F8781C1F10461FF041FC84426ED82B
:101A6800013A00F09D80B2FA82F24FF00044D4406F
:101A780072682046073222F00302C5F83C22B16A98
:101A88001FF02DFCC5F84002B36A40466343033398
:101A980023F0030302EB4302230103EB440309335E
:101AA80023F0030303EBC403C5F834221A440832B5
:101AB800C5F830227368C5F83842C5F82C323D4B5A
:101AC800C5E9AD63316800F0E5F90446002834D172
:101AD800D9F810B0D9F804A0D9F800300BF534794A
:101AE800059004934846DAE90734012B08BF103CF7
:101AF80032F006FFDAF824002F4904AB01EB80210D
:101B08004FF480624846009323461CF03BFA2B4969
:101B18000BF5307032F09EFEDAE9050183685C68E7
:101B28004CB15B46264AA047044630B9DAE90501BC
:101B380083681B692BB96FF05704002129E0013233
:101B480089E70122984704460028F6D11D4B28460C
:101B5800C5F8D0311C4BC5F8D4311C4B0393D5F8CC
:101B680040320293D5F83C32CDE9008305F5117374
:101B7800B26AD5F8781300F055F904460028DCD18C
:101B880005F1F00009F02AFA0028C5F880030ADBFD
:101B9800022138461FF050FB204607B0BDE8F08F01
:101BA8006FF00B04C9E76FF01504C6E76FF0770410
:101BB800F2E700BF2B12060088B3032011120600BB
:101BC80005120600D91B0400BD1306007112060099
:101BD80013B5044640B100230122CDE90032074B7A
:101BE800D0E9091209F028F9236F1B6823B1606F47
:101BF80002B0BDE81040184702B010BD8C64070061
:101C080013B504460846216901F55F71D1E8AF1F95
:101C1800022910D193B1A0B10121CDE900311346B9
:101C2800D0E9091209F008F9074B984208BF6FF08C
:101C38000B0002B010BD6FF00F00FAE76FF04C0018
:101C4800F7E76FF00100F4E72EF8FFFF2DE9F347FF
:101C580089461546066906F55F73D3E8AF3F022B40
:101C680064D1136823B96FF0150002B0BDE8F0879E
:101C78001B78002BF7D0D6F878A3BAF1000F36D12D
:101C880006F5EC774FF0FF324FF0FF3338461BF084
:101C9800B3FE30462A6801A9FFF7AEFE019C8046D4
:101CA8001CB938461FF0C6FADDE705F108032367BB
:101CB8006B6984F86CA06367646460B138461FF090
:101CC800B9FA21463046A36E2A68FFF773FE002052
:101CD800C9F80040C9E71F22296804F1480033F019
:101CE800D2F9384684F867801FF0A4FAEFE7304647
:101CF80010491FF06DFA04460028B4D0002705F1FA
:101D0800080303676B6980F86C70436740641F229F
:101D18002968483033F0B7F922460121304684F863
:101D2800677000F061F80028D1D09CE76FF00F00D1
:101D38009BE700BF8C64070010B50C46006900F5EE
:101D48005F73D3E8AF3F022B0FD189B10A4900F581
:101D5800307032F0BAFD204623F0AAFD7822002127
:101D6800204633F0DDF8002010BD6FF00F00FBE7D0
:101D78006FF00100F8E700BFD87E03202DE9F04F8F
:101D880005460E4690460027D0F8C4A085B0AAF5AF
:101D9800BE7421463046FEF745FAE0B9114BA4F16E
:101DA800480B0293DAF810303246CDE90083294611
:101DB8004FF0FF335846AAF5E27909F069F860B99F
:101DC8007823012203FB079383F86C20DAF80C30A0
:101DD8000BB158469847783417B105B0BDE8F08F75
:101DE8000127D6E7EB1306001FB5144690B18AB158
:101DF800012912D10A4B00F1F0010293D0F8D43135
:101E0800483201934FF0FF332046009309F040F821
:101E180004B010BD6FF01500FAE70020F8E700BF26
:101E2800EB1306002DE9F04387B00E46DDE90E817D
:101E38001446DDE910251F4630B329B3DFF850C03A
:101E480000F1F009002D08BF65469EB9CDE90344AD
:101E580000F5E2742046059623F0C2FF03ABCDE9F6
:101E680000432A463B464146484609F031F907B047
:101E7800BDE8F083002241460E9248462A4607B044
:101E8800BDE8F04309F074BA6FF01500EFE700BF42
:101E9800851D0400F0B504462B4A87B004AB0E46F6
:101EA80092E8030083E80300002C49D0184608F0A4
:101EB800C9FE0546B0B94FF0FF33E16C04F1540791
:101EC800A163CDE9010000933846236D04F138027F
:101ED80023F0A0F9A06C1FF0B3FAC4F8BC0020B935
:101EE8006FF00B05284607B0F0BDA06C1FF0A8FAEC
:101EF800C4F8C0000028F3D0236CD4F8BC10C4F890
:101F080090300423C4F89430C4F8AC300223E36260
:101F18000E4BB4F84820C4F88C10616C236204F1AD
:101F28008C03C4F8A070A4F89820C4F8B870C4F85A
:101F3800A810A4F8B020C4F8A400A6612363D1E7D0
:101F48006FF01505CEE700BF20590700BC59070000
:101F5800014B036000207047E859070070B5104B2B
:101F68000D461C68B4B10F4B196800238B4202DB85
:101F78006FF0010070BD224612F8106B864202D045
:101F880014460133F2E7E06832F030FA28B1002055
:101F98002C60EFE76FF00C00ECE76FF01200E9E758
:101FA80050000320E859070010B5436888B0029331
:101FB80083680C46CDE9033200230A68C068CDE97E
:101FC8000623054901AA059321F093FE079808B94D
:101FD800059B236008B010BDBB14060002460B46E3
:101FE80001481BF009BD00BFA003032001481BF0F6
:101FF8007BBD00BFA00303202DE9F0410E4B054631
:102008001C680E4617469CB14FF0FF304FF0FF3169
:10201800FFF7E4FF63682046D3F8108032463B465A
:102028002946C0470446FFF7E1FF2046BDE8F08196
:102038006FF00104F9E700BF007F0320002303606D
:10204800044B5A6812B9C3E9000070471060586021
:10205800704700BF047F0320014B1860704700BF22
:10206800007F03201FB5CDE901014FF0FF304FF08D
:10207800FF310392FFF7B2FF074B1C6824B9FFF743
:10208800B5FF204604B010BD636820461B6801A94F
:1020980098472468F2E700BF047F03200022024B20
:1020A800C3E90022704700BF047F03200022024BCF
:1020B800C3E90022FFF7F2BF0C7F03202DE9F743A5
:1020C80007460C4609B100230B6000261E4DDFF8B9
:1020D8007C904D450FD31E4B1D6885B355F8188C61
:1020E8003846414601AA183D1FF022FA10B3D6B966
:1020F80014BB2E461EE0D5F800803846414601AA9A
:102108001FF016FA50B116B954B92E4606E000224F
:10211800404631681FF00CFA0028F5D11835D8E789
:10212800019B2360F1E70022404631681FF000FA66
:102138000028DDD1AD69D0E7019B2360D9E730469F
:1021480003B0BDE8F08300BF1C5907001C59070005
:102158000C7F032038B50C4D4FF0FF334FF0FF32A2
:102168000A481BF049FC2B783BB9FFF79FFF00F0AA
:102178006DF8044610B901232B70002403481BF0A6
:10218800B3FC204638BD00BFD2B20320A003032011
:102198002DE9F04706468946048FDFF8ACA00134E4
:1021A80098B0A4B200F10807651EADB2B5F5004FAE
:1021B80047D04A23294605AA38461EF04DFF04F5A4
:1021C8007F543F34A4B280462146012338460DF19E
:1021D8000B021EF041FFB8F1000F014610DC002889
:1021E80010DC338FAB4209D132466B1E22F8383FE0
:1021F8004FF40041022338461EF0FBFD2C46D3E77E
:10220800002808DC294638461EF0C2FE214638461A
:102218001EF0BEFEE5E708F160030DEB030800239E
:10222800524608F84C3C05A8CDF8009003AB03973C
:10223800ADF810401FF0A0F90028DFD018B0BDE8B5
:10224800F0870020FAE700BFEF1506007FB50123ED
:10225800694605200193FFF781FE044660BB05200F
:1022680002AA01A91FF047F9044610B110F10C0F9A
:1022780022D10399B1F5803F23D200231846009A52
:102288009468084484421AD30133082BF9D10E4DBF
:10229800A982EB8253682846AB60D368EB631FF0D2
:1022A8003AFA044640B9094E28466E60FFF7C6FE62
:1022B80028466E60FFF7D0FE204604B070BD9BB282
:1022C800E5E76FF02004F7E7147F032034000320CC
:1022D80008B504481EF020FABDE8084002481EF080
:1022E8001BBA00BF935F0700C85F070030BFFFF746
:1022F800FDBF00BF074A936893F90E10002907DB5A
:10230800926993421FBF044A536843F08053536055
:10231800704700BF78B2032000ED00E0154B9A6AC1
:1023280012F0007F9A6A14BF1E201D2012F0807FD1
:102338009A6A18BF1F2012F4801F9A6A18BF0220D9
:1023480012F4002F9A6A18BF212012F4802F9A6A7B
:1023580018BF222012F4003F9A6A18BF232012F4F3
:10236800803F9A6A18BF24206FEA02426FEA12423D
:102378009A62704700ED00E010B5194B0246986A62
:102388009C6A10F4805F14BF1720162014F4006FA5
:102398009C6A18BF1820A40509D5986B986A000490
:1023A80004D51AB19A6A22F400429A6219200C4B99
:1023B8009A6A12F4806F9A6A18BF1A20D2050CD450
:1023C8009B6A13F4005F18BF1C20054A936A43F404
:1023D8007F43936200230B7010BD1B20F5E700BFFD
:1023E80000ED00E010B51C4B0246986A9C6A10F09C
:1023F800100F14BF1120102014F0080F9C6A18BF8A
:102408001220A40709D5586B986A000604D51AB19A
:102418009A6A22F080029A6213200F4B9A6A12F08D
:10242800010F9A6A18BF142012F0200F9A6A18BF79
:102438001520D40658BF9B6A074B9A6A920642BF7A
:102448005A6A22F400525A629A6A42F0FF029A6269
:1024580000230B7010BD00BF00ED00E0F0B54A4B43
:1024680004465B6800258BB0C3F3080385F3118825
:10247800BFF36F8F02F07F40B0F17F4F16D1D607C0
:1024880014D4550603D4100704D4012504E012F02F
:10249800040200D00C4600250022033B8DF80720DB
:1024A800032B05D8DFE803F02462665F2C46F3E7C8
:1024B80000239DF80720CAB902AE04F1200732466E
:1024C80020686168083403C2BC421646F7D1099AED
:1024D800002D53D0C2F3080121B96FEA52226FEAE6
:1024E80042220992184602A91FF04AF90BB0F0BD22
:1024F800254BDA6A9107DBD4DA6A002AD8DBDA6A74
:102508005200D5D55A69A16942F480725A61BFF365
:102518004F8FBFF36F8F5A6931F8021C22F4807213
:102528005A61BFF34F8FBFF36F8F4DF6027291421E
:1025380001D12368BDE79A6AD2B232B101200DF108
:102548000701FFF74FFF0346B3E79A6A12F47F4F7C
:1025580005D001200DF10701FFF70EFFF3E79B6A95
:10256800B3F5803FA4D3FFF7D9FEECE700200DF1C7
:102578000701E6E700200DF10701EDE722F4FF72FD
:1025880022F00102ADE700BF00ED00E0064B5A69FA
:1025980042F010025A615A6942F480625A615A69DB
:1025A80022F008025A61704700ED00E0EFF308805E
:1025B800EFF3098101B57246FFF750FF01BD00BF77
:1025C800002080F31488BFF36F8F002080F30A88FF
:1025D80080F30B88124880F3088822F071FD0020F0
:1025E80010490860BFF34F8F00F032F8202080F3C5
:1025F80011880D484FF0AA014FF4006231F024FF12
:1026080009484FF40061401880F30988EFF31480FB
:102618000221084380F31488BFF36F8F00F0DCF8C1
:1026280048E5032094ED00E008D203200023184673
:102638000649D1F89020C2F30722934200DB704785
:10264800C1F89830C1F8A0000133F6E700ED00E0CA
:1026580010B572B6002484F31388FFF7E7FF23460A
:102668004FF0FF300C4A03F120010133102B42F8E0
:102678002100F8D100234FF0FF30074A03F1600131
:102688000133102B42F82100F8D162B6BFF34F8F07
:10269800BFF36F8F10BD00BF00E100E0084B9B68DF
:1026A80083420BD1EFF3058343B1064B5A6842F0DE
:1026B80080525A605A6A22F400425A621CF0B0B83A
:1026C80078B2032000ED00E015498A6882F881E0BD
:1026D8004FF030001044EFF3098C80E8F01F202001
:1026E80080F31288BFF36F8F0E4F4FF000668A6930
:1026F8008A603E6092F981E0906F0023936780F3CF
:10270800118802F1300090E8F01F8CF3098802F17B
:10271800000004B51FF04BF8BDE804407047000006
:1027280078B2032004ED00E01EF0040F0CBFEFF3B5
:102738000880EFF30980816911F8021C0229FFD093
:1027480001B572461FF022F801BD00BF40B2002853
:1027580007DB01234109034A00F01F00834042F8C8
:102768002130704700E100E040B200280CDB012274
:102778000649430900F01F008240203341F8232016
:10278800BFF34F8FBFF36F8F704700BF00E100E0CA
:10279800054B420953F82220012300F01F0003FAD9
:1027A80000F01040704700BF00E100E040B2002890
:1027B80001F10101ACBF00F16040064B4FEA411145
:1027C800C9B2ABBF00F5614000F00F0080F80013FC
:1027D8001954704714ED00E00B4A08B50B4B22F072
:1027E8007F029A60BFF34F8FBFF36F8FD3F88820B3
:1027F80022F47002C3F888201AF0E0FF1CF048F9B0
:1028080000F046F81BF01AF80000040000ED00E0A4
:1028180042F8203C009B0D4942F81C3C019B21F0EA
:10282800010142F8183C029B42F8081C42F8143C8B
:102838004FF0807342F8043C002383674FF43C4315
:10284800203A0265C0F88030704700BF550706007F
:1028580000B5094B0E4698601546836E83F30B88C6
:102868002C4686F309880020044B9847204600210F
:1028780000220023024C204778B20320BF1706002D
:10288800550706001022014B1A61704700ED00E061
:10289800002320210348C2180133452B82F8001376
:1028A800F9D1704700E100E008B5EFF30583064A67
:1028B800103B02EBC30152F8330049688847BDE872
:1028C8000840FFF717BD00BF045607001FB5094CA5
:1028D800094A23460121094800F0FAF80023039326
:1028E800074B0121E41A01A80193029400F0FAF8B9
:1028F80004B010BD0000072000000320BC5A0700E8
:102908003005032010B50C7A0B6804F01F0223F081
:102918001F031A43CB68640923F01F03054943EAE0
:10292800440343F00103C1F89800C1F89C20C1F8A2
:10293800A03010BD00ED00E010B5074BD3F8903083
:10294800C3F30723013B984202D8FFF7DBFF10BD12
:102958006FF01500FBE700BF00ED00E02DE9F04F38
:102968000F46144606464FF000084D4D85B0B84551
:1029780080F29280D6F80490B9F1000F36D0B9F100
:102988001F0F40F2878019F01F0F40F08380D6F8A0
:1029980000A01AF01F0F7DD150461EF048FF834655
:1029A80009EB0A0001381EF042FF834572D11BF182
:1029B800160F6FD05C456DDDC5F898B0D5F89C1042
:1029C800C5F898B0D5F8A03021F01F0143F01F0AD0
:1029D800D6E900321A44994202F1FF391ED1CA459C
:1029E80008D131465FFA8BF01EF02AFF08F1010882
:1029F8000C36BCE73146C5F898B0D5F89C3022F0C3
:102A08001F0203F01F031343C5F89C30E0B21EF009
:102A180017FF10F1160F3DD0441CE7E7C5F898B032
:102A2800D5F8A020013B23F01F0302F01F02134337
:102A3800CA453146E0B2C5F8A030E8D01EF000FF24
:102A480010F1160F26D0C5F898B0D5F89C209DF83F
:102A580008300AF1FF3A62F304038DF80830D5F81C
:102A6800A0309DF808205B0863F347128DF8082012
:102A7800D6E900321344009323F01F035344A3EB19
:102A88000903013023F01F036946C0B20393FFF71F
:102A980053FFBEE76FF01504204605B0BDE8F08F80
:102AA80000ED00E00522044BC3F89420BFF34F8FDC
:102AB800BFF36F8F704700BF00ED00E0BFF35F8F7B
:102AC8000022024BC3F89420704700BF00ED00E0DD
:102AD80010B5034C2278FFF741FF207010BD00BFEE
:102AE800D3B203202DE9F74F294D8A4606464FF009
:102AF8000008AB46274FD0451BDAD6F80490B9F149
:102B0800000F3FD03168084601911EF090FE0199F0
:102B1800044609EB010001381EF089FE84424FF09B
:102B280014021D4B08D002FB08F36FF015024BF896
:102B3800032003B0BDE8F08F14F1160F2C60F8D015
:102B48001978A142F5DD02FB08B0C7F89840C7F82C
:102B58009840D7F89C4000F10801007B64F304001A
:102B68000871D7F8A0000C79400860F347140C717D
:102B7800D7F89C1021F01F016960D7F8A01021F048
:102B88001F01296108F1010814350C36B3E700BFAD
:102B9800547F032000ED00E0D3B20320F0B5414993
:102BA800414CD1F890302568C3F307239D4287B084
:102BB80075D80020FFF782FF3C4BC1F8C030854232
:102BC80016D13B4C01A82570FFF7C2F9002506462F
:102BD800384FAE4213D1002023783249D1F89020E3
:102BE800C2F30722934254DBFFF75CFF00202FE07B
:102BF800616801EB0011FFF785FE0130DFE70199FD
:102C0800280101EB0513DA683A40B2F5001F21D01C
:102C1800B2F5800F2BD0B2F5801F38D15A689B6867
:102C28000958013B22F01F0003440120844623F089
:102C38001F0340EA4C10CDE902218DF8100002A9CB
:102C480020780593FFF778FE00281DDA6FF015004D
:102C580007B0F0BD5A689B680958013B22F01F0075
:102C680003444FF0020C012023F01F03E1E75A68E8
:102C78009B680958013B22F01F0003444FF0000CE9
:102C8800022023F01F03D4E7237801332370013592
:102C98009FE7C1F89830C1F8A00001339EE74FF0D4
:102CA800FF30D5E700ED00E0C85A0700AAFF44004E
:102CB800D3B203200000F0FF014B1860704700BF3B
:102CC80058000320F8B506460D460024064FAC42CE
:102CD80008DA3B6898470A28305504F1010401D006
:102CE8000D28F4D12046F8BD54000320F8B50D4650
:102CF800094F461EC0F10104A3199D4201DC284674
:102D0800F8BD73780A2B02D10D203B6898473B68C1
:102D180016F8010F9847EFE75800032010B5074C45
:102D28002368C2180648C0F1005101F5E0218A4223
:102D380036BF22604FF0FF30C01810BD687F0320F7
:102D4800E816042008B505481DF0E6FC002383F3C7
:102D58001188BFF36F8F0423184602DF0560070050
:102D680070B541690446857A0B4E59B1437ADB0741
:102D780006D4302303FB05639B6A1B689B6898474E
:102D88000023636105EB4505214606EB0510BDE808
:102D9800704031F0D2BC00BF600403203021827A39
:102DA800064B01FB0233DA6A93F82230801A1B3390
:102DB80023F00303B0FBF3F0704700BF6004032067
:102DC80038B53024827A064B04FB02339B6AD3E978
:102DD80001240C601568FFF7E1FF04FB005038BDC3
:102DE800600403202DE9F04385B005466846904607
:102DF8001C46039131F0D9FEDDE90067EFF3118934
:102E0800202383F31288BFF36F8F2B8C002B43D0C2
:102E1800EA8B9A4225D90022002328461AF0B4FEEC
:102E28000446F0B189F31188BFF36F8F039B002B21
:102E380043D032463B46684631F0DBFE3021A27A69
:102E4800264B204601FB02339B6A03A91B681D68B9
:102E5800DDE90023A847606180BB2046FFF780FFBB
:102E680026E0298C4B1E2B8489F31188BFF36F8FC2
:102E780095F82230EA8BEC6A1B3323F00303521ACD
:102E880002FB0344154B164AEB1A1B115343A3725A
:102E980095F82230E372C9E789F31188BFF36F8F81
:102EA8002346424628461AF06FFE04460028BDD144
:102EB8000024204605B0BDE8F083636101230025A6
:102EC8002381039B29466382E27A656004F1180036
:102ED80032F026F863692582E360EAE7600403209C
:102EE800ABAAAAAA70B530250B4C00B970BD037AFD
:102EF8004668013BDBB20372002BF7D1C360436025
:102F0800837A05FB03435B6A13B198473046ECE7C5
:102F1800FFF726FFFAE700BF6004032007B50DF1AD
:102F2800070006F061FC114B98421CD14FF48062F7
:102F38000F4B1049C3F8B8254FF40062C3F83C257D
:102F48009DF8070022F0C5F80B499DF8070022F00C
:102F5800BBF801209DF80730984006F03FFC0020A0
:102F680003B05DF804FB6FF00B00F9E70000AD0B50
:102F780000A002402CA0024028A10240052370B501
:102F8800144D154E2C780134B4FBF3F303EB830393
:102F9800E41A21F048FC114A137823B156F824307A
:102FA800C01A072813D90E4BD3F8141141B10021C8
:102FB800C3F81411D3F814312C700CB90123137011
:102FC8002C7821F030FC46F82400012070BD002048
:102FD800FCE700BFD5B203206C7F0320D4B20320E6
:102FE8000050004048B1054B054A1B68B3FBF2F39B
:102FF8005843044B43F0010318477047D800032097
:1030080040420F00705907000B460121024AC2F8DE
:1030180014160021184700BF00500040014902481B
:103028001DF004BCFC5A0700807F03202DE9F047FF
:10303800174B0546D3F830210C46072AD3F834310C
:1030480021D1023B032B02D8124AD35CDBB14FF0EB
:10305800010800264FF050290F4F0520C9F818869F
:10306800C7F8146622F02EF84046C7F8148622F0F6
:1030780029F8C7F81466C9F8186628462346BDE833
:10308800F047002118470022034BC3F81426F4E741
:1030980000F007200E600700005000401FB5002315
:1030A8000193039301236946054802931DF0D1FB60
:1030B800029B9B0708BF039B05B05DF804FB00BF9C
:1030C800807F032008B1FFF7E9BF01481DF018BC55
:1030D800807F0320F7B506460D460D488AB28368FF
:1030E80031461B689847002810DA00240CE02F1B93
:1030F800042F28BF042721F096FB3A46019001A926
:10310800301931F0E6FE3C44A542F0D803B0F0BDDA
:103118007855070070B5450706460C4608D5086877
:1031280022F0AEFF02380228606833D81FF066FC30
:10313800B00702D520461EF0B0FDF10702D52046A3
:1031480000F00AF9B20402D520461EF0D6FDF304B9
:1031580002D520461EF06CFD114B1B6813B12146A9
:1031680030469847D4F80831CBB11A4652F8085976
:1031780005B1083D53F8083C1BB12146304652685A
:10318800984765B12A46AD68136835B1083D002BEC
:10319800F3D1F7E71FF01EFCCAE7002BEDD170BD95
:1031A800A07F0320034B08461B681A79196831F081
:1031B80090BE00BFA47F032008B5044800F07AFA47
:1031C80018B1BDE808401EF002BC08BD1C0503206C
:1031D80070B505462E4686B004681EF0B1FC012184
:1031E80056F8380B22F04EFE30B130461EF082FC05
:1031F8006FF0040006B070BD8121286822F029FE16
:10320800BE21286822F02AFE2868F02122F0DBFE81
:10321800204622F028FE40BB20461A4922F010FF23
:103228000028E2D10B21204622F075FE0028DCD1CF
:1032380042F21071204622F089FE0028D5D10821DB
:103248006846114A00F056FE6946204622F0C0FE44
:103258000028CAD110210D4A02A800F04BFE2046D2
:1032680002A922F0CFFE0028BFD12046012122F07A
:103278000CFF044630461EF03DFC002CB8D1204619
:10328800B8E700BF12600700186007003060070049
:10329800F0B5054685B00B211EF02EFC28460C2102
:1032A8001EF02AFC264B28461EF091FB02930123B0
:1032B8000446039300F13807384604F1F80631F064
:1032C80097F930461F4931F0C5FA002D36D02B68E2
:1032D80003B110331C4A204613601EF031FC002154
:1032E800084621F013FB22F0C3FD0121C4E90005C3
:1032F80022F0E2FD22462068144922F0D8FD00237E
:10330800C4E942332246124954F8500B22F0B7FD63
:1033180028461FF05FFB38461EF0ECFB02AB4FF46B
:103328004662204600930B496FF007031AF02AFE05
:103338003146204631F0B9FA05B0F0BD2B46C9E751
:10334800606007008B1B0600A47F0320591A060043
:103358001D31040088B70320F8B50646006822F03E
:103368009CFD04461D4F04B9F8BD94F91230002B9A
:1033780032DBA368B3F17F4F04D1E36823F07F43C6
:10338800BB4229D0627C012A20D800230122214691
:1033980070681EF0ABFF0546F0B1306822F04CFEB5
:1033A80008220146204631F084FDB0FA80F095F8F5
:1033B8002A30400960F3820385F82A30A37C03F0A1
:1033C8000103C3F1020385F8293005E0022A01D17F
:1033D8000023DCE7032AFBD06469C4E7FE00FC0095
:1033E80038B54FF0FF324FF0FF3305461D481EF049
:1033F800AFFE1D4B1B687BB11A684FF0FF344FF4CA
:103408007A705BB9631C1BD1184831F08BFABDE8A0
:10341800384014481EF0A5BE1A46EEE7D9691B8C41
:10342800491B00FB0313002B09DD9C4228BF1C46E7
:103438001AB1116813460A46E3E71146FAE7002471
:103448004FF4004540F2E73000214FF47A72002330
:10345800E4FB0501FCF7CCFE02460B4603481AF0D4
:1034680039FED4E778030320F481032018090320E8
:103478002DE9F04F87B01F468B46039004921EF04B
:1034880069FE039B5B68002B00F0A5800024A04622
:10349800A24626462046109A191D02F00102019400
:1034A80005922C2202FB0432926A4C4D22F07F4294
:1034B80022F47D0222F0FF02AA4246D131F8042C00
:1034C800022A42D18E4648F2FE023EF8045995423D
:1034D8003BD00BF1FF3202924A1E94460022029D15
:1034E80015F8019F02951CF8015FA94547D10832DC
:1034F800D2B2802AF3D1049DAA4228BF2A463D7839
:10350800954222D82C2505FB043595F82A506D07DD
:103518000BD53F2A09D89BF80050FF2D15D19BF8F1
:10352800015005F00F05032D0FD12C2505FB04359F
:10353800059E95F82A50C5F3C0059EBB002D08BF0F
:1035480092460E4608BF70463A700134062C01F1C7
:103558002C01A6D1109B990729D540B1041D3146ED
:1035680020461EF0C1FD10B9264687F800A0039832
:1035780014301EF0F6FD304607B0BDE8F08F89EA3A
:10358800050515F0800FB6D102F108095FFA89F92F
:103598000132D2B26D009145EDB2ACD015F0800F7A
:1035A800F6D0A8E788460E463A700192CDE7109B00
:1035B800DA070CD5B8F1000FD9D0314640461EF0D5
:1035C80093FD0028D3D1019B46463B70CFE7109B63
:1035D800DB05CCD5C1E71E46C9E700BF00010200E4
:1035E800F8B51EF089FD4FF0FF3306464FF0FF3265
:1035F8001C481EF0ADFD1C490B682BB100224FF48E
:103608007A7E17461C683BB93046FFF7E9FEBDE8ED
:10361800F84014481EF0A5BDDD69188CAD1B0EFBE3
:103628000055002D9C460EDC186892B94D6808605C
:10363800AB4200D14860944693F822001F6067F3BC
:10364800000083F8220054B12068234662460446ED
:10365800D9E710604868834208BF4A60EBE7204614
:10366800F3E700BF78030320F4810320002808DD76
:10367800431E054800EB8310044B984228BF0020E6
:1036880070470020704700BFC004032000050320D6
:10369800054B064A934205D0054A1068002808BF22
:1036A8001846704700207047C00403200005032017
:1036B800FC810320024608B50649074B8B4202D31A
:1036C8000023184608BD18461EF0BCFC8242F8D0FC
:1036D8004033F3E700050320C004032038B504464F
:1036E8000D461EF037FD072120461EF0D1FC20B301
:1036F800636843B105B12B60002504F114001EF086
:1037080030FD284638BD4FF0FF324FF0FF330C48EC
:103718001EF01EFD0B4BD3F8282242B96360C3F894
:10372800284205B12B6006481EF01BFDE4E704485B
:103738001EF017FD6FF00205DFE76FF08505DCE787
:1037480078030320B87F03202DE9F74F80460F4602
:103758004FF02C0B1B4DDFF870A0554501D300240A
:1037680026E028461EF0F6FC6C6805F1140924B919
:1037780048461EF0F6FC4035EFE70026211D0BFBFE
:10378800064393F82A309B0716D531F8043C022BE0
:1037980012D18022404601911EF084FC019958B153
:1037A80007B13D602C23484603FB06441EF0D9FCB4
:1037B800204603B0BDE8F08F0136062E01F12C013A
:1037C800DDD1D5E7C004032000050320F8B5134E6A
:1037D8004FF0FF3204464FF0FF3330460D461EF0DF
:1037E800B7FC01230E4F84F8293018342146384697
:1037F8001EF0FCFB38461EF0EFFB1EF07DFC294650
:10380800024620461FF00EF90023002205481AF050
:1038180061FC3046BDE8F8401EF0A3BC78030320E5
:10382800EC810320E80803202DE9F74F80460D4678
:103838004FF0180B214CDFF888A0544507D245B14A
:103848002B6833B1A34204D040345445F8D3002444
:1038580029E020461EF07EFC676804F1140927B9A8
:1038680048461EF07EFC4034E7E7002607F58671DF
:103878000BFB067393F81C31DB0718D531F8043CB1
:10388800022B14D18022404601911EF00BFC0199B5
:1038980068B105B12C60182404FB0674484604F589
:1038A80084741EF05EFC204603B0BDE8F08F01363C
:1038B800082E01F11801DBD1D2E700BFC0040320B4
:1038C8000005032000232DE9F04385B00446174680
:1038D8000D468DF80F30002958D048F2FE030A88AB
:1038E8009A4233D00B78FF2B04D14B7803F00F03A7
:1038F800022B2BD0294620461EF065FE60B190F8B9
:103908002480FCB142462946204600970DF10F035A
:10391800FFF7AEFD044610E04FF08008F1E73046AF
:103928004246294600970DF10F03FFF7A1FD002835
:1039380018BF044640364E45F1D3CCB1204605B0F9
:10394800BDE8F083124EDFF84C90F4E724B1012172
:1039580020461EF00BFEDDE7FFF79AFE01211EF060
:1039680005FE04460028E9D1094D0A4EB54204D3A4
:1039780005B0BDE8F04300F0EDBA012128461EF07D
:10398800F5FD04460028D9D14035EFE70C46D5E7C8
:10399800C0040320000503200023F0B587B001937D
:1039A80001AB05460F4616461EF0DDFB044600280F
:1039B80049D000F11402D2E8AF3F002B43D0581E83
:1039C800D2E8EF1F994204D1C2E8EC0FBCF1000F16
:1039D800F6D1F0D1012B38DC94F82A30022F6FF39E
:1039E800410384F82A302CD15EB32846019F1EF08B
:1039F800B1FB6B680BB394F82A30DB0714D4144E70
:103A08004FF0FF334FF0FF3212481EF0A1FB304653
:103A180004F118011EF0EAFA336813B90E4830F0C1
:103A280081FF0C481EF09DFB012F06D1201D02A925
:103A38001EF0F7FA28461EF0FEFC05F114001EF0F1
:103A480090FB002001E06FF0150007B0F0BD00BF4B
:103A5800EC81032078030320E80803202DE9FF41C7
:103A68001EF04AFB00230746CDE902334FF0FF3230
:103A78004FF0FF332E481EF06BFB2E4B1C68B4B181
:103A880025684FF0FF36DFF8AC80BCB139462046D8
:103A98001EF0E7FF68B9214640461EF0A7FA02A8C3
:103AA8001EF09AFA2DB32B682C461D46EDE72546E5
:103AB800E7E7864228BF0646AC42F3D1731C10D014
:103AC8004FF4004440F2E73000214FF47A720023AB
:103AD800E6FB0401FCF78CFB02460B4616481AF07D
:103AE800F9FA13481EF03DFB029C24B904B0BDE866
:103AF800F0812B46D8E7206A1EF02CFB94F825307D
:103B0800206A6FF3410384F8253001A9FFF7E6FD29
:103B180000280BDB206A94F82430019904F1100284
:103B28001EF0EEFD206A14301EF01BFB2468DCE753
:103B380078030320E4810320B80803202DE9F04727
:103B48001EF0DAFA4FF0FF3380464FF0FF322D486F
:103B58001EF0FEFA2C4B1C68002C4DD054F8185956
:103B680005B1183D4FF0FF364FF02C090EE009FB68
:103B78000317BC4223D109FB031104311EF0A4FD35
:103B88003DB3AB6903B1183B2C461D4604F1180A36
:103B9800414650461EF065FF0746A8B951461A48E7
:103BA8001EF024FA3A46504639461EF03BFF1748A5
:103BB800174A9042E4D241680023A142DAE7013370
:103BC800062BD4D14030F4E7864228BF0646A542EA
:103BD800D6D1731C10D04FF4004440F2E7300021D6
:103BE8004FF47A720023E6FB0401FCF701FB02465E
:103BF8000B4608481AF06EFABDE8F04701481EF077
:103C0800B0BA00BF78030320EC810320C00403206E
:103C180000050320E8080320F8B54FF0FF330546F8
:103C280017460E484FF0FF320E461EF091FA0C4B25
:103C38001B680BB11C6823B90848BDE8F8401EF0A2
:103C480090BA3A46314628465B6898471CB12268C4
:103C580023461446EFE72246FAE700BF780303201D
:103C6800B07F03200023F0B585B004460D46CDE9AA
:103C7800003300294CD0294B1B68A3B1C96B95F8B8
:103C8800406081B1062E0ED80DF10A03184632465F
:103C98008DF8096031F01DF995F8413000908DF8E4
:103CA80004608DF80530092120466F691EF0F0F98F
:103CB80080B30D2120461EF0EBF938B94FF0FF32E2
:103CC8004FF0FF3304F128001EF042FA20461EF0A0
:103CD800B9F929464368204698470D2106462046EB
:103CE8001EF0D6F918B904F128001EF03AFA002E91
:103CF80002DA28461FF050F91FB1314638461EF047
:103D0800B0F9009B23B1324669462046FFF784FF8D
:103D180005B0F0BD6FF07206EBE700BFB07F03207F
:103D28002DE9F0410D460646F8B1F1B10846FCF719
:103D380083FA08281CD8114FDFF84480441C4745F3
:103D480008D32246294606F1080031F0C2F80020BF
:103D5800BDE8F081B74206D02246294607F108009F
:103D680031F0A7F838B14037E9E76FF01500EFE711
:103D78006FF05A00ECE76FF07700E9E7C004032022
:103D8800000503202DE9F0433E4C4FF0FF324FF081
:103D9800FF333D4885B01EF0DBF927461FF00CFCC9
:103DA8003A4DDFF8EC803B4EAC422BD33A4B3B4AC2
:103DB800DB1B9B09AA4288BF0023EBB1384939486D
:103DC80030F0A4FD3849394830F0A0FD4FF4A07315
:103DD800374CA4F8243247F230532046C4F818323E
:103DE8001EF05DFC3349C4F81C02334830F08EFDE8
:103DF8000022324BC3E90022234805B0BDE8F04356
:103E08001EF0AFB900222046C4E9022222741EF037
:103E18001EF9D0F80890B9F1000F18D0D9F8003081
:103E2800ABB1072120461EF074F904F1140030F0FC
:103E3800DFFB04F1280030F0DBFBD9F80030204626
:103E4800984794F83C3023F0030384F83C30237AF5
:103E58008BB920461EF0F6F880450ED1184A136833
:103E6800591C1160174A092101A81CF062FC204660
:103E780001A9FFF755FF403496E733685A1C3260B2
:103E8800114AF0E7C004032078030320000503204B
:103E98001C050320A87F03203F050320810403207D
:103EA800453B0400E8080320653A0400B8080320ED
:103EB800B87F0320E935040018090320F4810320A2
:103EC800AC7F03206B6007007460070038B5074CAF
:103ED800074DAC4200D338BD032120461EF0D8F868
:103EE80010B920461EF044FD4034F2E7C004032018
:103EF80000050320F7B51446054610460E46FCF7A4
:103F08009BF92346124A204483420AD132460021B3
:103F1800284631F005F82E44B5420DD1002003B0F3
:103F2800F0BD13F8017BD15D11F0440FECD13A2FAD
:103F3800EAD06FF01500F2E72046102201A91BF025
:103F480035FC019C05F8010B01340194E4E700BF3E
:103F58002667070000487047085B07004FF0FF32EC
:103F68000121014830F0F3BB0082032001460148DB
:103F78001EF0F7BF9004032073B5054616461C468D
:103F880030F0E3FC08B10026344601A93246234646
:103F9800284619F003FD0146A8B9019C6022204675
:103FA80030F0BEFFFF22012384F84F20074A204645
:103FB80095422363656008BF84F85C301FF038F8C9
:103FC800204602B070BD0024FAE700BFF0020320CB
:103FD80002460B460148FFF7CFBF00BFF00203209F
:103FE8002DE9F743DDE90A4506461746984689460E
:103FF80029B923B990F8473013F0700F46D030F044
:10400800A4FC08B10024002530461EF0E5FF96F810
:104018004730002846D113F0700FC3F3021243D083
:10402800022A0CBF28220022B8F1110F32D108321F
:1040380009EB0201C3F30212B36913B11B6803B1A0
:104048001B8B022A32D1B3F5A06F38BF4FF4A0639F
:10405800CDE900451B1A994228BF19467568164BC9
:10406800164C17483A46A54208BF18461EF08BFE64
:104078000146E8B130461EF0E1FF3FB1B06839466D
:104088000C301DF03EFC30461EF0D2FF002003B07D
:10409800BDE8F083B8F1010F02D0B8F13A0FC7D1EB
:1040A8000432C5E70022C3E70246C1E70B46CFE763
:1040B8006FF00B00EBE700BF90040320F002032031
:1040C8006004032030B585B00093DDE90845134648
:1040D800CDE902450A46014602481EF0F8FF05B040
:1040E80030BD00BFF002032030B585B00093DDE994
:1040F80008451346CDE902450A46014602481EF026
:10410800E6FF05B030BD00BFD0020320B022024B4D
:1041180000FB023030F006BB48090320082828BFFE
:104128000020014B185C70477A60070010B588B012
:104138000F4C204630F0E9FA4FF0FF324FF0FF33D2
:10414800CDE9062300230B49CDE90323CDE901334B
:104158004FF4BC62084B009404F1200019F0FAFFF8
:1041680020B108B0BDE810401AF02EBB08B010BD51
:1041780048090320E8C30320A13506002DE9F341CF
:104188000746884616466FF001054FF0FF334FF09B
:10419800FF32134819F030FC124B1C6834B9104830
:1041A80019F0A2FC284602B0BDE8F081227C3378E1
:1041B8009A4213D1637C72789A4200D073B9A3688B
:1041C80013B1BA69934209D1E3684246009365681E
:1041D800334639462046A847051EE0DB2468DDE75C
:1041E8008C03032018820320F8B50F4616461D4697
:1041F8000446D0B1CBB11422002130F091FE6560A5
:10420800277466744FF0FF324FF0FF33084819F0F7
:10421800F3FB084B1A6822605A681C6002B95C609C
:10422800034819F061FC0020F8BD6FF01500FBE7AA
:104238008C0303201882032002460B46014819F01C
:10424800DBBB00BF64030320014819F04DBC00BF6D
:10425800640303202DE9F04F89B0CDE9052390F8D8
:1042680047300546C3F302130393013B012B0E4667
:1042780000F29F801346112A15BF4FF0000A069BD3
:10428800CDF810A01B6802BF1A880492B3F802A0E8
:10429800039B022B3AD1086800210830FFF754FA33
:1042A80034680746102204F1180104F1080030F0C0
:1042B80000FE00B117B1049B9A457AD094F8188093
:1042C800A8F1FF04D4F1000848EB04084FF0000BF4
:1042D8004FF0FF304FF0FF31FFF7AEFF534BD94699
:1042E8001C684FF0FF3307939CB9B9F1000F74D1E4
:1042F800FFF7AAFFB8F1000F00F08A80BBF1000FAA
:1043080057D028461EF048FE002053E04FF0000822
:10431800DCE7A36B93BB94F84230002B3BD1B4F895
:104328004030059A934234D1E38813B1049A9342FA
:104338002FD1E38B0BB153452BD194F84370B907B8
:1043480006D5012331462846221D1FF051F900B336
:104358007A0707D500233146284604F11C021FF0CE
:1043680047F9B0B1079B07F07807BB4211DAB8F1FB
:10437800000F14D13BB2A14607930AE0B3F87620A8
:104388001005C8D5AF6993F97800FFF76FF9874230
:10439800C1D02468A8E7039A9A42C0D0F9E740F64A
:1043A800CD42002328461FF096F8074628B9FFF7A4
:1043B8004BFF022009B0BDE8F08FE36B0146009384
:1043C80032462046069BD4F834C0E047022802D182
:1043D80038461EF0E1FDC346DBE7D9F83440D9F88A
:1043E8003C70FFF731FFB8F1000F0FD0BBF1000FA1
:1043F80087D1002CDDD0069B3246294648460097D7
:10440800A047831E584258414000D3E7002CF2D100
:1044180095F84730C3F30213022BCAD100230422B4
:10442800012128461FF0B8F9C3E700BF2082032006
:1044380000230B4A10B5C2E900330A4A1846114650
:1044480014460133042B086002F1480202D00846E2
:104458001146F6E7044B054AC3E9002410BD00BF26
:10446800208203203082032028820320088303202F
:1044780000228021014B0248FFF7B6BEBD36060078
:10448800508303202DE9F04F282300268DB0CDE975
:10449800066308AB0A930823044688460B9383698E
:1044A800039383684BB9204606A91FF052F80546C6
:1044B80038B902200DB0BDE8F08F1A8A5B6816443F
:1044C800F0E787887FBABFB22837B742F1DC03DA52
:1044D800394620461EF079FFAB6833B9EB6823B93B
:1044E8002B6913B96B69002BE3D02B7AFF2BE0D033
:1044F80005F11806002130461FF054FA0028D8D1DB
:10450800B8F1000F7BD02B786A781B0143EA1213AD
:10451800DAB2C3F3850343EA821384F85030AB79E7
:10452800022284F84F300023A4F84A30282384F864
:104538004630A368DB68DB7984F8493094F8473063
:1045480062F3061384F847302B7EFF2B00F08E8031
:10455800314603981DF09FFE0028AAD02B7EFF2B22
:1045680000F08480204607991EF0E9FD95F8069032
:10457800B9F12C0F00F0A18000F29780B9F1000F7B
:1045880000F09D80A9F12B08D8F1000646EB08063B
:10459800B6004FF006084FF0000AB9F13A0FA4F838
:1045A8004C8000F02081B9F1110F00F01C81B9F1A5
:1045B800060F00F01881B9F13B0F3FF47AAF20469F
:1045C8001EF013FF012280460DF10B0120461EF05C
:1045D800A2FE00287FF46DAF9DF80B302C2B00F065
:1045E800CC806ED82BB12B2B03D0112B6FD0062B80
:1045F8006DD020461EF0F9FE0122431EEEE0304643
:104608001FF0BFF900287FF454AF05F108084046B1
:104618001FF0B7F900287FF44CAF012130461FF096
:10462800C1F900287FF445AFFFF794FC01463046F6
:104638001FF0C4F968B1052130461FF0B3F900280E
:104648007FF437AF082130461FF0ACF900287FF41B
:1046580030AF00214046FFF777F800283FF453AF0A
:1046680090F92930002B3FF44EAF22E70121304664
:104678001FF098F900287FF475AF022130461FF02B
:1046880091F930B1304667491FF098F900287FF456
:1046980069AF304603A9FFF7C7F800283FF409AF10
:1046A800037D98073FF55EAF03E7A9F13C0CDCF109
:1046B800000646EB0C0676006BE7082669E701263C
:1046C80067E73C2B5FD1B10751D446F00206B9F138
:1046D800000F02D0B9F13C0F8BD1002301222046F4
:1046E80005A91FFA87FB8DF814301EF014FE002868
:1046F8007FF4DFAE9DF814300133BBEBC30F4FEAF4
:10470800C309FFF4D6AE4FF0020BA9F103030193DE
:1047180020461EF06AFE0122009004A920461EF0E1
:10472800FAFD00287FF4C5AE9DF810208ABB9DF8DD
:104738001020B2B3012A9DF8141037D0019B8B4288
:104748007FF7B7AE02F0C002802A45D0C02A3FD01A
:10475800002A7FF4AEAE20461EF0F1FC00287FF45C
:10476800A8AE9DF8142002320BEB02031BE0720680
:104778003FF53FAF46F04006A9E733073FF539AFAD
:1047880046F00806A3E7A3F13B02012A9FD93A2B7A
:104798002EE70122204605A91EF0BDFD0028C6D03F
:1047A80087E60BF101031FFA83FB07E08A1C0BEB7A
:1047B800020320461FFA83FB1EF0C1FCD945A7D887
:1047C800D1441FFA89FA5FFA88F89DF80B90E4E65D
:1047D8002B7EFF2B3FF46DAE0222009B0421204666
:1047E8001EF0DAFF65E6B9F1110FA4F84AA008D067
:1047F800B9F13A0F7FF45DAE294620461FF097F8CD
:1048080058E620460AA900F057F8049000283FF41B
:1048180050AE4A46204604AB05A90595FFF71AFD98
:1048280048E600BF385B07000823F0B585B003935E
:1048380090F847301E4A1F4FC3F302130E4602A9D1
:104848000446022B08BF1746CDF808D01EF081FE9B
:10485800054650B30023A2681ABBB4F84A1094F86E
:1048680046200A449B1A5BBAAB803946A0691EF001
:104878007BF800B97EB1112120461EF09EF94FF653
:10488800FF73002818BF0346EB8094F8483043F0C4
:10489800080384F84830204602A91EF078FE05B0C7
:1048A800F0BD118A52680B44D6E76FF06800F6E74E
:1048B8000004400001004000F8B590F847301C4A59
:1048C8001C4EC3F3021304460F46022B08BF1646BC
:1048D8001EF03FFE054610B900252846F8BD3946AA
:1048E80020461EF054FE03460028F5D1AA88A16888
:1048F80052BA92B2B9B994F84610B4F84A000144D1
:104908005B1A9A42E8D13146A0691EF02FF80028B8
:10491800E3D0EB88002BDFD0112120461EF04DF9A3
:104928000028DAD0D8E7088A49680344E2E700BFDC
:10493800000440000100400070B50D4606490446D9
:10494800411A4911402205481FF00CF92B4601462F
:104958002046BDE870401847788303203C5507007F
:1049680037B540230C460A490093411A49110546B8
:104978002346084A08481FF023F9011E05DA28468D
:10498800234603B0BDE83040184703B030BD00BF30
:1049980078830320373C06003C55070010B5EFF339
:1049A8001184202383F31288BFF36F8F074A13689B
:1049B80023F00201DB07116002D4012020F095FBEF
:1049C80084F31188BFF36F8F10BD00BF28840320C4
:1049D8002DE9F8430022012106460520FDF7E6FEF1
:1049E800114804F085FF114B984219D104F090FF4B
:1049F80000244FF00C080127DFF834903569494648
:104A080005EB44101BF012FF002807DB08FB0455D8
:104A18000134042CC5F88870F0D10020BDE8F88373
:104A28006FF00400FAE700BF4D4B04000000AD0B27
:104A3800485B07007FB500220123CDE9022304ABC0
:104A4800CDE90433094A6B46CDF800D0CDF804D03F
:104A58001FF0E6F8002805DB4FF480420023684683
:104A680019F0F8F807B05DF804FB00BF673C0600D2
:104A78000C22124B014602FB0033002030B4D3E96C
:104A88002052C3F88000EFF31180202484F31288A9
:104A9800BFF36F8FD3F8884004F0C00444F00204D9
:104AA800C3F8884080F31188BFF36F8F1DB12B4680
:104AB80030BC0348184730BC704700BF78830320D8
:104AC8003C55070010B4EFF31182202383F31288BA
:104AD800BFF36F8F1848016841F002040460C807EB
:104AE80007D482F31188BFF36F8F012010BC04F044
:104AF80027BF1249D1F80C04D1F80C14C907F0D516
:104B0800EFF3118083F31288BFF36F8F0C49D1F84C
:104B1800883003F0C00343F00203C1F8883080F303
:104B28001188BFF36F8F82F31188BFF36F8F002056
:104B380010BCFFF79DBF00BF288403200050004031
:104B480078830320092814D8DFE800F0051113132F
:104B5800131313130F0D074BD3F8880010F0070039
:104B680007D1FFF785BF0220FBE70320F9E7012003
:104B7800F7E77047788303202DE9F04101220746C3
:104B88003449D1E8EF3FC1E8E02F0028F9D133B923
:104B9800314932484B60CB608A601BF05AFE7B1E5D
:104BA800012B28D8012F06D12D4BD3F81C3403F044
:104BB8000303022B1FD02FF0C8FE0546E8B9294B86
:104BC8001B78D3B102220646254BC3F80823244C90
:104BD800DFF89480D4F81824D4F81834D20315D503
:104BE80003F00303022B01D0012F0FD16DB386F31D
:104BF8001188BFF36F8FBDE8F081EFF31186202392
:104C080083F31288BFF36F8F0125E0E7C5B1304603
:104C18001CF0F1FDD4F81835DBB2012BDAD1D4F849
:104C28000421002AD6D00022C4F80421D4F8042193
:104C38000222C4F818252022C8F88021A360C9E7F9
:104C4800002121202FF036FFE4E70222044BC3F8AD
:104C58000423D0E77483032064830320988303200C
:104C6800005000407DB3032000E100E008B507488C
:104C78002FF0BCFB38B10648FEF71EF80448FBF7D6
:104C880081FF002008BD6FF01200FBE78C5507007C
:104C98009D4C04000A2838B50446074D04D1AB687A
:104CA8000D212846DB699847AB680348DB69E1B208
:104CB8009847204638BD00BF8C55070000F1744066
:104CC80000F5A6000A289ABF024B33F910006FF0CE
:104CD8000F007047C85E0700024B0B60012313608A
:104CE800704700BFE05B070000487047745B07002F
:104CF8000268154BFF2A08BF4FF0FF32C3F824257E
:104D08004268FF2A08BF4FF0FF32C3F8282582689F
:104D1800FF2A08BF4FF0FF32C3F83025C268FF2AC8
:104D280008BF4FF0FF32C3F834250269FF2A08BFD5
:104D38004FF0FF32C3F838254269FF2A08BF4FF009
:104D4800FF32C3F83C25704700B00240054B99423A
:104D580006D14FF0FF324FF0FF33183018F07ABF0A
:104D6800704700BF0000AD0B10B50446026902F1A0
:104D78003003D3E8EF1F0139C3E8E01F0028F8D15A
:104D880092F8343033B90222054BC3F8B82509B973
:104D980005F012FE2069BDE8104018F027BF00BFDB
:104DA8000050004010B5046904F13003D3E8EF1F48
:104DB8000131C3E8E21F002AF8D100694FF0FF3340
:104DC8004FF0FF3218F046FF94F834303BB9044AEC
:104DD800C2F8B8350720BDE810402FF002BB10BD5F
:104DE800005000402DE9F3470F4605461E46904601
:104DF8004168002A79D0002B77D0042B01D9B3075A
:104E080073D117F0030470D1002F6EDBCA6ABB1987
:104E180093426AD82846FFF7C5FF20461EF0EEFFEA
:104E2800044648B101201EF0E9FF2846FFF79CFF21
:104E3800204602B0BDE8F087032E1ED804213A466A
:104E48000DEB010020F0DFF9044601462869FFF761
:104E58007DFF274B9C4235D13246414601A830F0B0
:104E680038F804213A460DEB010020F0C9F9044650
:104E780001462869FFF76AFF24E008F06043B3F1B0
:104E8800005F02D118F0030F2BD0DFF864A0042EC6
:104E9800B14628BF4FF0040941464A4601A830F000
:104EA80018F83A46494601A820F0AAF904460146EE
:104EB8002869FFF74BFF544504D1B6EB0906C844EF
:104EC8004F44E4D12046FFF7F9FE044601201EF0C6
:104ED80095FF06462846FFF747FF002C08BF3446D3
:104EE800A6E73A4631464046BFE76FF015049FE70C
:104EF8000000AD0B2DE9F04F824688461C46174648
:104F080085B0002A00F08F80002B00F088800029EF
:104F1800C0F289804268CB18D26A934200F283803B
:104F2800C8F1000505F00305FFF73CFFA54228BFBF
:104F380025467B4203F0030307F0030658BF5E4291
:104F4800764206F00306A64228BF2646631BA41B2A
:104F580024F0030423F00309A145C8BFA14603F0C8
:104F6800030BC8BFA3EB040BB9F1000F18D0BB1992
:104F780008EB050249461846019320F044F9044617
:104F88000146DAF81000FFF7E1FE284A94423DD1C5
:104F9800B54205D0019B4A46194678192FF0A6FF5D
:104FA800C5B1C5F104060421A8EB060202A820F049
:104FB8002AF904460146DAF81000FFF7C7FE1B4B32
:104FC8009C4223D106F108032A4638460DEB03011B
:104FD8002FF07FFFBBF1000F17D0082108EB050267
:104FE8004A440DEB010020F00EF904460146DAF8B8
:104FF8001000FFF7ABFE0D4B9C4207D109EB0500F3
:105008005A4602A938442FF064FF084C5046FFF76F
:10501800ABFE204605B0BDE8F04FFFF74FBE18467F
:1050280005B0BDE8F08F6FF01500F9E70000AD0B93
:105038002DE9F047C1F30B0307460E461546D0F895
:1050480004C0002A6BD0C2F30B0252EA030466D1F3
:10505800002964DBDCF82C204B1993425FD8FFF75A
:10506800A1FE2046D7F804801EF0C8FE044600289A
:105078004FD1DFF8B090D8F82C30AB4221D120F0D6
:10508800C5F8AA46044621463869FFF75FFE4C4535
:105098002CD15644A5EB0A0500214FF4A4702FF03B
:1050A80009FD1EF090FE041E30DB14F00104F3D15C
:1050B800002DE0D101201EF0A1FE002C08BF0446FF
:1050C80027E0B5F5803F09D3B3B2A3B93146012033
:1050D80005F08EFC4FF4803A0446D4E7B5F5805FBE
:1050E80009D211493869FFF731FE0F4C2046FFF706
:1050F800E5FD0446DEE7C6F30B000028F1D1314692
:1051080005F076FC4FF4805A0446BCE701201EF0F7
:1051180075FE3846FFF728FE2046BDE8F0876FF099
:105128001504F9E70000AD0B0400AD0B2DE9F047BD
:10513800436890B05D6B0746002128460AAA1EF016
:10514800CCFF041E79DB0A9B2A681979186800F0DD
:10515800C1FD041E71DB0026002201212B20FDF772
:1051680025FB5B4BC3F8B86507202FF03AF9D7F851
:1051780004803A694046574905F094FBFFF79EFDC5
:10518800041E51DB544D0AAC0FCD0FC495E8030043
:10519800AB230DF1040984E803000196C9E901660F
:1051A8008DF804304D4B0AA8D3F8242504ADD2B2AB
:1051B8000492D3F82825D2B20592D3F83025D2B27A
:1051C8000692D3F83425D2B20792D3F83825D2B252
:1051D8000892D3F83C35DBB20993FFF789FD01202B
:1051E80005F0DEFB01462846FFF782FD3C4B99425D
:1051F80027D1314648461EF0B5FD041E14DB232096
:105208002FF0EFF84FF0030A9F2331460AA8CDE9A3
:105218000A66CDF81090CDF814A08DF828300C95BA
:105228001EF0A0FD041E0FDA0222294BC3F8B82590
:1052380005F0D4FB08B105F0BFFB204610B0BDE86F
:10524800F0876FF00404EFE75246494608F1300052
:105258002FF02FFE0446002834D17A68537F023B92
:10526800012B2DD9167F023E022E8CBF0026012667
:105278001EF0A9FD002828DBC2B2C0F380108642C8
:10528800D2D00023012182F040020AA8ADF80030F4
:105298000A938DF80020CDF810D005910C938DF865
:1052A80028100B951EF05EFD04460028BCD11EF0A8
:1052B8008AFD041E01DBE307F9D404EAE474B3E7CA
:1052C8000126D5E76FF01204AEE70446ACE700BF4D
:1052D80000500040613D06002859070000B0024018
:1052E8000000AD0B024B0B6001231360704700BF39
:1052F8002C84032000487047E85B070010B50122A2
:10530800064811462FF023FA1FF077FF044C20605F
:105318001FF070FF6060002010BD00BF34840320C0
:105328002C84032070B50C4615461FF063FF2946F0
:10533800064620461EF080FD08B3B4FBF6F306FBD4
:105348001343E3B9B5FBF6F306FB1353BBB9AE42FF
:1053580001D9002070BD4FF0FF324FF0FF330948EC
:1053680018F078FC1FF046FF0646204604F0FCFFC4
:10537800AD1B3444F9D1034818F038FCE9E76FF065
:105388001500E7E734840320F8B50E461946304681
:1053980017461C461EF050FD08B346EA040515F0F2
:1053A80003051CD1A4B14FF0FF324FF0FF330D4875
:1053B80018F050FC24F00304A54206EB050009D1BF
:1053C800094AD2F80034DB07FBD5064818F00EFC72
:1053D8000020F8BD795904F0E3FF0435ECE76FF0DD
:1053E8001500F6E73484032000900340F0B54068C8
:1053F80001F01F04057B87B044EA45140569002DB8
:1054080063D0B2F5001F00F1100506D121462846E9
:105418001FF0EBFE002007B0F0BD0027B2F5800FAB
:1054280001AE0197776039D1B3F1007F14BF05232E
:1054380004238DF804300023CDE9046303938368C3
:1054480023FA01F111F001011AD1B2F1A07F17D1AD
:1054580004F01F03620903F180032AD0012A3AD11C
:105468001E4A52F82330DB070AD40DF103063246F0
:105478002146284604F070FD194B98421BD002962D
:105488002146284603AA04F023FC164B98421FD154
:1054980001222146284604F0C1FDBBE7B3F1C06FE5
:1054A80005D0B3F1007F14BF01230223C1E7032312
:1054B800BFE70D4AD5E73146284604F0A9FD094B58
:1054C8009842DCD06FF00B00A5E76FF08500A2E7EB
:1054D8006FF015009FE751F82330FFDE0028844065
:1054E8000400AD0B0000AD0B0025844038B54568BD
:1054F8002B69B3B11035284604F07AFD044680B90B
:105508000146284604F042FD084B98420BD122463A
:105518002846074904F01AFD224605212F20FDF7E9
:1055280045F9002038BD6FF00400FBE70000AD0B23
:105538003D5504004209034670B502D0012A17D030
:1055480070BD0D4E326951680029F9D0012503F06C
:105558001F030C689D400029F2D08A682A4002D0B7
:1055680030464B6898472CB1236821461C46F2E721
:10557800024EE7E72346F8E7645507005055070051
:105588002DE9F04340F206354668D00648BF0320AF
:10559800337B02EA050558BFC2F3401087B001F01B
:1055A8001F07B5F5837F144647EA43178DF80300B4
:1055B80044D00FD8062D18D007D8B5B1022D3FD04A
:1055C8006FF0150007B0BDE8F083B5F5807FF7D11F
:1055D80001250AE040F20222954233D0B5F5407F1A
:1055E80032D0B5F5007FEBD102250123220303FA5F
:1055F80001F12BD573689960326972BB07F01F03FC
:105608007F0928D0012F75D13C4A02EB830284F42C
:105618008033D2F80012C3F30043C4F3404444EA91
:10562800430421F4706144EA800421F00F0144EA44
:1056380005230B43C2F800320020C3E70725D4E74F
:105648000425D2E70525D0E70325CEE7630344BF49
:105658007368D960D0E72A4AD7E71036394630460A
:105668000DF1020204F078FC14F4403F80460CD19E
:10567800394630461FF0B7FD224B9845DCD13046FD
:105688009DF8021004F0BEFCD6E74FF0000901AB0C
:105698003946304603AACDE90439CDE90199CDF858
:1056A8000C9004F015FB174B984289D114F4003381
:1056B80015D09DF8033084F48034C4F300448DF889
:1056C8000E3039464B46304603AA8DF80C508DF8FB
:1056D8000D4004F0B9FB0B4B9842CDD070E7CDE9F3
:1056E800043339460DF10303304603AA039304F04B
:1056F800EFFAF0E7803352F82330FFDE00288440C9
:10570800002584400000AD0B014BB3F83806704704
:10571800080B0320024B002083F83C16704700BF9B
:10572800080B032038B50B4DD5F8304664B94FF453
:105738007A704843C5F8302603F0DAFB38B9C5F863
:1057480030066FF00F0038BD6FF07700FBE720469A
:10575800F9E700BF080B032008B5064B93F93C0690
:1057680003F00AFD03F06CF900280CBF6FF0040089
:10577800002008BD080B032021B1012906D06FF0D5
:10578800010070470123002013607047004BFAE7BF
:10579800605C07002DE9F04114468AB00C290ED848
:1057A800DFE801F007193034383D5F630D0D0D67F0
:1057B800CC00137843B1507820B1012802D06FF0A3
:1057C800150005E003F00CFA207803F0A3FA002096
:1057D8000AB0BDE8F08153791179106833B103F04C
:1057E800B5FA0028F3D16FF00B00F1E730B103F000
:1057F800D7FA0028EBD16FF00100E9E7084603F07B
:10580800F9FAE4E7107803F097F9E0E7107803F085
:10581800AFF9DCE71268504BC3F83426D7E71568B0
:10582800002603F095FD05F11004503554F8103C9E
:10583800002BCCD01034A542C9D0049314F8173CDF
:1058480004A88DF8143054F8143C0896CDE90636AF
:1058580014F8183C83F001038DF8243003F044FD5C
:10586800E4E7106803F008FDB1E7106803F020FDD5
:10587800ADE7937A43B10121002003F02BFA01210F
:10588800084603F027FAA2E74FF6FF73B2F808803C
:10589800984535D053689BB304A90F46ADF80880E6
:1058A80003F1080212F8010D9A4201F8010BF9D12F
:1058B800266816B135786B060ED14FF6FE739845FB
:1058C80004D00122002102A803F0D8F901223846A9
:1058D800114603F0D3F97AE77278204B02F07F0281
:1058E800198852009B7852EAD512ADF80C108DF841
:1058F8000E3008D1032203A9B01C2FF0DAFA20B128
:105908006FF0850064E71A2AFAD14FF6FE739845BE
:1059180009D0012205F07F030092002132460233AC
:1059280002A803F079F9012122683846137800911A
:1059380003F07F03023303F06FF948E7107803F0B0
:1059480033F92378044A82F83D36002B7FF43FAFC1
:1059580003F054F83BE700BF080B0320D1600700B1
:1059680030B5044685B018B303680BB31B6808222A
:105978001D69F4232B71CE236B7136230DEB0200C6
:10598800AB710D491CF009F8DDE902322046CDE97A
:105998000023C5F80720EB7208220123291D1CF0FB
:1059A80055FC20462C6005B0BDE83040FDF770BCC2
:1059B80000231B69FFDE00BF0402FF00034B1868C9
:1059C80010B1006800B10068704700BF080B0320E1
:1059D80070B5054688B04668046904F56E702EF007
:1059E80094FE0122002104F5AF602EF0B0FE0122E2
:1059F800002104F25C502EF0AAFE1FF055FB03F0C4
:105A0800D7FB82B2D301110101F4016103F4807361
:105A180012020B4302F48062134343F49553144A71
:105A280043F00F03A2F83836012384F83D36336873
:105A38002846984704F54C76002200230025CDE936
:105A480006236FF00D034FF44872CDE90335304655
:105A5800CDE90155074B009404F1100118F07AFBC9
:105A6800054930462EF077FF284608B070BD00BFC4
:105A7800080B032091070400D56007002DE9F041C9
:105A8800174C0023264607468C46DDE90601D4F864
:105A9800DC83B8F1000F06D00133102B04F1180491
:105AA800F5D1BDE8F08118245C433519C5F8DC73DD
:105AB80085F8E9C385F8E8233A782FF061F9B6F854
:105AC8005835C5E9F801A5F8EA3304F57671A6F862
