:020000040000FA
:10000000F80B0020793900001D3A0000A5290100F5
:10001000C5290100E5290100252A0100052A010062
:10002000000000000000000000000000DD60000093
:100030001D3A000000000000BB7200001D3A0000E5
:100040001D3A00001D3A0000000000002B75000062
:10005000000000001D3A0000000000000000000049
:100060001D3A00001D3A00001D3A00001D3A000034
:100070001D3A00001D3A00001D3A00001D3A000024
:100080001D3A00001D3A00000000000000000000C2
:100090001D3A00001D3A00000000000000000000B2
:1000A0001D3A00001D3A00001D3A00001D3A0000F4
:1000B0001D3A00001D3A00001D3A00001D3A0000E4
:1000C0001D3A00001D3A00001D3A00001D3A0000D4
:1000D0001D3A0000000000001D3A00000000000072
:1000E0001D3A0000000000001D3A00001D3A00000B
:1000F000000000001D3A0000000000001D3A000052
:100100000000000000000000000000001D3A000098
:100110001D3A0000000000001D3A00001D3A0000DA
:10012000000000001D3A0000000000000000000078
:1001300000000000000000000000000000000000BF
:1001400000000000000000000000000000000000AF
:100150001D3A000000015F5F02000000FE0B00007E
:10016000B961000000040000000000000000000071
:100170000000000000000000000000000100FFC3BC
:10018000000000C420A800200000000001015F5F03
:10019000030100001F010000A50F00000020000067
:1001A000000000000100000001000000000000004D
:1001B000000000000000000000000000B83B00202C
:1001C0000000000070000000685A0100800000007C
:1001D000000F000001000000D1030000010000003A
:1001E00001015F5F000100001F0000006D3600008C
:1001F00000070000000000000300000001000000F4
:1002000000000000000000000000000000000000EE
:1002100010160020000000008000000070000000A8
:1002200040000000735A0100600000000107000058
:1002300001000000012C00000100000001015F5FCF
:10024000010100001F010000831A000020070000C8
:10025000000000000000000001000000000000009D
:10026000000000000000000000000000B85B00205B
:1002700000000000915A010070000000020F000011
:1002800001000000C90600000100000001015F5FDD
:10029000040100001F010000252B000000050000E4
:1002A000000000000000000001000000000000004D
:1002B000000000000000000000000000D8620020E4
:1002C00000000000B65A01004000000005070000D1
:0C02D00001000000D72800000100000021
:1002E00038B500250648294600F58054D4F8002486
:1002F000C4F8045412F0FFFBC4F8005438BD00BF2A
:10030000D8670020024BD3F8043403600020704704
:10031000D877002037B511460022CDE90022426887
:100320000346402A04684BD1228D150A032D17D0AD
:10033000012D37D024482468D0F80404AA1ECDE942
:100340000040082A36D8DFE802F0050B0F14191E0A
:10035000232830006A46184601F0A7FA03B030BDE2
:10036000184600F001FFF9E76A46184600F0BDFFA5
:10037000F4E76A46184600F023FEEFE76A4618469F
:1003800001F06FF8EAE76A46184601F072F9E5E70E
:100390006A46184601F0C2F9E0E76A46184601F0DD
:1003A000C0F9DBE701F03CFBD8E76A46184601F0EC
:1003B00065FBD3E7054812F028FC6FF08500CDE718
:1003C0006FF08000CAE700BFD87700206C2B0000D8
:1003D0002DE9F04F05680446A3B0002D40F0B5802C
:1003E0002022294602A812F086FB12AF20222946BD
:1003F0000AA812F080FB40222946384612F07BFB07
:10040000E26904F11C039846B2B10426E26A04F1E1
:100410002C03EAB10425EEB96FF08306304623B011
:10042000BDE8F08F002EF1D053F8041D3246013E96
:100430000029F7D01646E9E70326F5E7002DEAD0B4
:1004400053F8041D2A46013D0029F7D01546E2E77E
:100450000325F5E740233A460021606807F0B0FE27
:100460004028D9D10121DFF8ECA0CDE9027004F1D8
:10047000100902AF0AF5805B8E4221D10AAF3846DF
:100480000021334A08EB8509D2F80034A2F5805ADE
:10049000C84533D109B1C2F80034A3683146C2F867
:1004A000043402A82B460AAAFFF734FF4FF00008D5
:1004B0000646454507F108073ED1FFF711FFADE7B6
:1004C00059F8043F1A1D21D8DBF800C4D81C20F0CD
:1004D0000300CCF5A052904218D860440CEB0A02FD
:1004E000CBF800046068CDE9001207F069FE019ABC
:1004F0000099F860013147F8082FBDE758F804EF7C
:100500001EF1040F07D909B1C2F80034FFF7E8FE65
:100510006FF08C0682E70EF1030C2CF0030CC3F590
:10052000A05BDC4500F10800EDD803EB0A0140E9CF
:10053000021E63440121ABE7414657E9022360688C
:1005400007F04AFE08F10108B3E76FF0850665E79A
:10055000D8770020D867002008B54FF4F252002168
:10056000024812F0C8FA002008BD00BF781D002024
:100570000023F7B50C6807460E461546019314BBD9
:1005800022B3146001A8FFF7BDFEA8B94FF4727C36
:10059000104A0CFB04F3D158A646013471B94FF050
:1005A000010E02EB030C42F803E0019910331344EF
:1005B000CCE9011734602B6003B0F0BD082CE8D102
:1005C0006FF08400F8E76FF08800F5E76FF08600C1
:1005D000F2E700BF781D00200023F7B505680193FE
:1005E000013D072D036004D96FF08604204603B057
:1005F000F0BD01A8FFF786FE04460028F6D14FF4AF
:1006000072735D430A4E73597719012BECD17A68E6
:10061000019B9A42E8D105F110004FF46E72214619
:10062000304412F068FAC7E901447451DEE700BFB4
:10063000781D0020002373B54C1E072C0646154676
:10064000019303D96FF0880002B070BDC2B101A858
:10065000FFF758FE0028F7D14FF4727202FB04F145
:10066000094B5C585A18012CECD19468B442E9D17A
:100670005468019A9442E5D1103119442960E3E7A6
:100680006FF08600E0E700BF781D002010B5044C35
:100690000F222046034912F009FA204610BD00BF80
:1006A00028A50020912B000008B54FF40251044802
:1006B00007F020FF034807F0E3FF002008BD00BF5C
:1006C000A88400200B2C01006FF47A72F0B5036847
:1006D000044613448DB0032B7CD8DFE803F00228D6
:1006E0004C6B0369082B02D06FF080055FE08569D1
:1006F000042DF9D10021406808AA07F061FD0828FF
:10070000F2D12B460221606806AA07F059FD0428A1
:10071000EAD16168314A63691160069ACDE9003215
:10072000DDE90823A06800F021F905463FE00369F0
:10073000082BD9D14569042DD6D10021406808AADB
:1007400007F03EFD0828CFD12B460121606806AA9C
:1007500007F036FD0428C7D16168204A236A11607A
:1007600005AACDE90132069B0093A068DDE90823C4
:1007700000F058F9D9E70369082BB5D1076A0C2FA7
:10078000B2D10021406806AA07F01AFD0828ABD1B3
:10079000DDE9062308AE0096A06800F095F905464D
:1007A00028B901463B463246606807F015FD2846E9
:1007B0000DB0F0BD0369082B96D10021406808AA4E
:1007C00007F0FEFC08288FD1DDE90823A06800F0BF
:1007D0008DF9AAE76FF08505E9E700BFE07B00200F
:1007E000024603480B460068012107F0E9BC00BF40
:1007F000E07B0020024603480B460068002107F01A
:10080000EBBC00BFE07B00201FB550EA010314469B
:100810001BD0CDE90120042203910E480DEB02010B
:1008200012F044F908220C480DEB020112F03EF9D7
:100830000A4B0B480B4AB4F5807F08BF18460549A0
:1008400004B0BDE8104001F001BA6FF0860004B0BA
:1008500010BD00BF3AA500203EA50020E47B00208B
:10086000FC7B00201484002030B5384B85B09D6A95
:10087000A8470369042B03D06FF0800005B030BD9A
:10088000A847334C8368A360A847037D01A823765B
:1008900005F0ADFA0028EFD1019BA26863609DF8D6
:1008A0000C3021465343029A2A48B2FBF3F22282CB
:1008B000294AE36001F07DF90028DFD1254801F0E5
:1008C000A9F9002834D1A8470369042BD4D1A8473B
:1008D000224C8368A360A847037D01A8237605F016
:1008E00078FA0028C8D1019BA26863609DF80C309B
:1008F00021465343029A1A48B2FBF3F22282164A67
:10090000E36001F056F90028B8D1154801F082F9EA
:100910000028B3D0134812F078F9114801F094F987
:100920000028ABD10E4805B0BDE8304001F072B9E7
:100930000D4812F06AF9074801F086F900289DD1A8
:10094000044801F067F90028BDD097E7A87A0000B5
:100950005C1D0020FC7B00204C2B0000401D002073
:10096000E47B0020C62B0000A02B00002DE9F347FC
:100970001946DDE90A5652EA01030446104641D001
:10098000072E42D82246FFF73FFF30B9204B9B6825
:10099000DB0705D56FF0840031E010F18C0F2ED10C
:1009A000DFF86CA01B4F1C4B46F44036CAF80860B9
:1009B000B4F5807F18BF1F460026DFF86080DFF89F
:1009C0006090CAF80450B5F5006F2C4628BF4FF46C
:1009D000006412482146FFF703FF2346524649466A
:1009E0003846CDE9006801F045F940B9DAF8083039
:1009F0002D1B23F44033CAF808302644E3D102B05B
:100A0000BDE8F0876FF08600F9E76FF08500F6E744
:100A100014840020E47B0020FC7B0020147C002058
:100A20003AA500202DE9F74F194652EA0103804606
:100A30000C9E1046DDF8389039D04246FFF7E4FEB0
:100A4000054638BB1B4B1C68B44230D30D9BA41B1E
:100A50009C4228BF1C46184F184BDFF864A0B8F51D
:100A6000807F18BF1F46DFF85C80C9F80040B4F5EE
:100A7000006FA34628BF4FF4006B33465A465146D9
:100A80003846CDF8008001F000FA054630B1002369
:100A9000C9F80030284603B0BDE8F08F59464046FB
:100AA000FFF7A8FEB4EB0B045E44E0D1F2E76FF071
:100AB0008605EFE714840020E47B0020FC7B002007
:100AC0003AA50020147C002038B50546194610468A
:100AD0002A46049CFFF798FE28B9034B1A689B68C6
:100AE000C4E90022A36038BD1484002010B5044678
:100AF000194610462246FFF787FE80B9084B9B68CF
:100B0000DB070AD40748084B0849B4F5807F08BFC3
:100B10001846BDE8104001F0A8B96FF0840010BD80
:100B200014840020FC7B0020E47B00203AA50020F8
:100B3000F8B51D46036804465B680E46174698479D
:100B40000B4BC0F3410013F8202063680699E0685E
:100B50001D442368B1FBF2F200FB065039469B6945
:100B600098470028B4BF6FF091000020F8BD00BF87
:100B7000602B00002DE9F3470A9C07469146002CA4
:100B800057D0C26840681E183B6802FB01665B686C
:100B90009847294BC0F3410013F82080B6FBF8FAC0
:100BA00008FB0AFA564524D03B68012250465B698F
:100BB00001A99847002804DA6FF0910002B0BDE85F
:100BC000F087A6EB0A03E218904501AA02EB0301A5
:100BD00004D92246484611F069FF08E0A8EB060553
:100BE00055442A46484611F061FF641B02D100209B
:100BF000E4E700253B68A0455B690DD8B4FBF8FA33
:100C000009EB05015246A81998470028D4DB08FBD8
:100C10000AF2A41AEBD015443B6801225B6901A9D2
:100C2000701998470028C7DB224601A909EB050087
:100C3000D1E72046C2E700BF602B00002DE9F0435A
:100C4000904600220446ADF2144D04AD28460391AF
:100C500006AE11461F4600F0E7FEA26B40F20311FC
:100C6000304600F0E1FE4FF46E72002116A811F03C
:100C700042FF1822002109A811F03DFF1A2200218D
:100C80000DF13E0011F037FF4FF6F87241F201030B
:100C9000B2EBC70F4FF6FF72ADF820304FEAC70333
:100CA00038BF134608A80121ADF8223001F043FFF8
:100CB0000FA84FF4804101F03EFF4FF49053DFF84E
:100CC00088902146226A03803346C0F80C9008F0D1
:100CD000AFFA044640BB494616A808F027FE044672
:100CE00010BB96E80C0040F2011116A813F0E9F8C9
:100CF0000446C8B9042340F2032103AA16A813F03E
:100D0000D7F8044680B92A4616A908A813F020F897
:100D1000044648B9DDF830344246009395E80300B4
:100D20003B4612F0F4F9044616A812F041FF96E88B
:100D3000030008F041FA95E8030008F03DFA204668
:100D40000DF2144DBDE8F083090100082DE9F04FC4
:100D5000002599B004A8049507F09AFA4FF01808F6
:100D60000646DFF8C4902F4FB54201D1002024E0A1
:100D700008FB05FA049B03EB0A02116949454FD1B0
:100D80000021946807A853F80A2000F04DFE1C22A9
:100D9000002109A811F0AFFE0DF10E02049B019293
:100DA00006AA53440092D3F814B0202103AB05AA3D
:100DB00010A8D84720B16FF0920019B0BDE8F08FAD
:100DC0004FF6F8714FF6FF72089B0F93BDF80C3089
:100DD0008B4288BF1346ADF82630069B079A0C93CA
:100DE000BDF80E3009A9ADF82430049B53441B69AB
:100DF0000A9313F0FF0308BF1A4644235C4304F12F
:100E000024000E923C441C22384411F04FFE204630
:100E1000059A10A911F04AFE059B23620123236461
:100E20000135A1E720840020010100807FB56B46D9
:100E3000154683E8030012B300240646146003A895
:100E4000039407F025FA039BA04209D01A4652F8F2
:100E5000181B8E4208D1D3E90221931E0B4306D101
:100E60006FF08B0004B070BD13460134ECE74421F1
:100E7000044B002001FB02331B6A2B60F2E76FF08A
:100E80008600EFE7208400202DE9F04F87B09846D8
:100E9000109B012807461446DDF844A0009304D9AE
:100EA0006FF0860007B0BDE8F08F442545433C4E07
:100EB00073191B6C002B6DD0002AF1D0D2E905B953
:100EC000002303A8039307F0DDF90023039A984257
:100ED0004FD0114651F80CCBE3454CD1D2E9011368
:100EE00039B1002253F8320081453FD103EBC203F0
:100EF0005B6805F124011C2231442046019311F066
:100F0000D5FD5A46494604A800F08EFD0499626852
:100F100061610599019BA161D1B221B922F0FF0263
:100F200042F0010262601946204601F004FE4423AB
:100F300003FB07631A6A009B9A422ED8B8F1000F90
:100F4000AED0BAF1000FABD0A36870195B0415D511
:100F500040F20313994511D042464946009BCDF813
:100F600040A007B0BDE8F04FFFF768BE01329142E4
:100F7000B8D10023BDE70A460133A8E70146404641
:100F800011F094FD442303FB0766336A0020CAF87E
:100F9000003087E76FF08B0084E76FF0890081E70E
:100FA0002084002008B5FFF7D7FA40B9FFF76EFBA1
:100FB000FFF77AFB18B9BDE8084008F073BE08BD1A
:100FC0002DE9F04F4FF00008D0F8009089B0B9F843
:100FD00028A006AF06460D46D2E900213846CDF8D6
:100FE000148000F021FDBAF5A06F15D12B1D0393DD
:100FF0006B6802932B680193F3680093B368D9F888
:10100000042097E8030008F081FD0446C0B90024DD
:10101000204609B0BDE8F08F40F201539A4512D145
:101020002B1D03936B6802932B680193F368009365
:10103000B368D9F8042097E8030008F0DFFAE4E782
:10104000C5F80480E4E7AAF2025B1FFA8BF3012BD8
:101050001FD8D5F80080B8F1000F02D16FF08004DE
:10106000D6E76B68032BF9D9D9F80830414601203F
:10107000C8F8003005AAFFF77BFA04460028C7D15C
:10108000BBF1060F6DD8DFE80BF0384725314F5A1A
:1010900067000120D9F8081005AAFFF7CBFAAAF2D9
:1010A0000753012B044603D90028B1D18046E7E756
:1010B000D5F80080B8F1000FD0D06B68032BCDD9E4
:1010C000D9F80830C8F800300028D9D0BAF5A16F97
:1010D0009DD09DE705982B1DD5E9001212F033FF36
:1010E0000446002893D000236B6091E70598D6E969
:1010F000021212F0DAFB04468AE7D9F804300598A8
:1011000097E8060012F0B9FB044600283FF47FAFD1
:101110004046FFF761FA7BE7D9F80430059897E875
:10112000060012F0B6FBEFE72B1D01936B680598E4
:1011300000932B68D6E9021212F0D5FBD0E7059890
:1011400005F10C03D5E9021212F0E7FB0446002872
:10115000DED00023EB605BE7059812F080FB0446CD
:10116000D6E76FF0850453E72DE9F04300260568C4
:1011700085B0B5F828900746B9F5407F88460296B5
:1011800012D10B1D01934B6800930B68D0E902123A
:10119000686812F070F90446002858D0C8F8046056
:1011A000204605B0BDE8F08340F20133994509D1EE
:1011B000436900938168D0E90323686812F06CF9F1
:1011C0000446EDE740F20233994519D10E6816B98D
:1011D0006FF08004E4E74B68032BF9D9AB68314624
:1011E0000320336002AAFFF7C3F904460028D7D1D1
:1011F0006968029812F0CEF8044640B330466EE0BB
:101200000320A96802AAFFF715FA6FF441734B4453
:10121000022B04460BD90028C2D10646A9F203339B
:10122000042B5FD8DFE803F015371B283200D8F80D
:101230000060002ECCD0D8F80430032BC8D9AB689E
:1012400033600028EAD040F207339945A8D1002442
:10125000A6E70298D7E9021212F0BCF8B0E70298AC
:1012600008F10C03D8E9021212F0C8F8044658B18C
:101270000023C8F80C3093E70298D7E9021212F065
:10128000CEF8044600288BD10024B7E7029812F06C
:1012900076F80446B2E70023D8F800500393002DF7
:1012A00096D0D8F80430032B92D9BB68002B8FD08E
:1012B000FA68032A8CD91B68294603202B6003AAED
:1012C000FFF756F9044600287FF46AAFDDE9020112
:1012D00012F00BF9044600283FF462AF2846FFF7EE
:1012E0007BF95DE76FF085045AE72DE9F04F0025A3
:1012F000D0F8009089B0B9F828A00DF11808074679
:101300000E46D2E900214046059500F08DFBBAF566
:10131000806F16D1331D0393736802933368019372
:10132000FB680093BB68D9F8042098E8030012F02A
:10133000CBF90446002856D07560204609B0BDE8B8
:10134000F08F40F201439A450ED17B6902933B69CD
:101350000193FB680093BB68D9F8042098E8030068
:1013600012F0C7F90446E8E7AAF2024B1FFA8BF322
:10137000012B1AD8356815B96FF08004DDE7736862
:10138000032BF9D9D9F80830294602202B6005AA89
:10139000FFF7EEF804460028CFD1BBF1050F5DD86A
:1013A000DFE80BF02331393F4D570220D9F8081000
:1013B00005AAFFF73FF9AAF20543022B044603D919
:1013C0000028BAD10546E8E73568002DD4D0736807
:1013D000032BD1D9D9F808302B600028DDD040F29A
:1013E00007439A45A9D10024A7E7D9F80430059806
:1013F00098E8060012F0E5F804460028F3D02846E5
:10140000FFF7EAF899E7D9F80430059898E806005C
:1014100012F0E3F8F0E70598D7E9021212F0E9F8C4
:10142000A0E7059806F10C03D6E9021212F0F5F8D0
:10143000044608B90024E2E70023F3607DE705983D
:10144000D7E9021212F020F9044600287FF475AFA4
:10145000F0E7059812F05BF80446D0E76FF08504DA
:101460006BE72DE9F04F4FF0000907688DB0B7F832
:1014700028A00DF1280806460D46D2E90021404675
:10148000CDF8249000F0D0FABAF5C06F1FD12B1D13
:1014900007936B6806932B680593F3680493B3680E
:1014A000039373690293336901937B6A00937A68AB
:1014B00007F1140398E8030012F04BFA04460028E1
:1014C00068D0C5F8049020460DB0BDE8F08F40F21A
:1014D00001639A4517D12B1D07936B6806932B6800
:1014E0000593F3680493B3680393736902933369B4
:1014F00001937B6A00937A6807F1140398E803006C
:1015000012F06FFADAE7AAF2026B1FFA8BF3012BE3
:1015100020D8D5F80090B9F1000F02D16FF0800407
:10152000D1E76B68032BF9D9BB6849460520C9F898
:10153000003009AAFFF71CF804460028C3D1BBF10C
:10154000090F00F29380DFE80BF027345662697AC6
:101550006F3B80510520B96809AAFFF76BF86FF45B
:10156000C1635344022B044603D90028ABD1814602
:10157000E5E7D5F80090B9F1000FCFD06B68032BE9
:10158000CCD9BB68C9F800300028D8D040F20B6332
:101590009A4598D1002496E77B68099898E8060058
:1015A00012F076FA04460028F4D04846FFF714F803
:1015B00089E77B68099898E8060012F075FAF1E768
:1015C00005F10C030293EB6809980193AB68009353
:1015D000D5E9041205F1140312F094FA044608B98F
:1015E0000024E2E70023EB606B616CE7099812F0DE
:1015F00040FA0446D9E709982B1DD5E9001212F0EC
:10160000E5FC04460028C5D000236B605BE7099821
:10161000D6E9021212F054FA044654E70998D7E9C1
:10162000031208F0F7F8F7E72B1D01936B68099890
:1016300000932B68D6E9021208F046F9E1E7099811
:10164000D6E9021208F012F9E6E7F3680998019367
:10165000B3680093D5E9021205F10C0312F084FA85
:1016600004460028BCD00023EB602CE76FF0850413
:1016700029E7F0B587B0076804AE04460D46D2E905
:101680000021304600F0D0F93B8DA3F5E063032B39
:1016900041D8DFE803F0021421332B1D03936B685C
:1016A00002932B680193E3680093A3687A6896E835
:1016B000030012F048F8F0B9002007B0F0BD6369EC
:1016C000029323690193E3680093A3687A6896E81C
:1016D000030012F04EF8F0E72B1D03936B680293A2
:1016E0002B680193E3680093A3687A6896E8030087
:1016F00012F06FF8DFE700236B60DEE763690293A7
:1017000023690193E3680093A3687A6896E803006D
:1017100012F075F8D1E76FF08500CEE76FF0850025
:10172000704700232DE9F04706688EB0B6F8289080
:101730000DF1140807460D469246D2E900214046B5
:10174000049300F071F9B9F5106F0FD12B1D0393BD
:101750006B6802932B680193FB680093BB68706809
:1017600098E8060012F08DFC044626E040F60113CE
:10177000994517D12F68002F74D06B68032B71D94E
:10178000B368394604203B6004AAFEF7F1FE044624
:1017900098B97168049808F0C9F80446002872D115
:1017A00000240AE00420B16804AAFEF743FF0446BF
:1017B00038B140F60A13994557D020460EB0BDE81F
:1017C000F087A9F60219B9F1080F6BD8DFE809F024
:1017D000050F14281B5F222F4D002968002941D0D6
:1017E0006B68042B3ED1049812F060FABCE7316BB1
:1017F000049812F064FAB7E7718D0498D7E90223D0
:1018000012F056FBB0E7718D0498D6E90C2308F06E
:10181000D3F8A9E70498D5E9001212F083FAA3E7F8
:10182000718D049898E80C0012F04BFB9CE72E6831
:10183000C6B16B68032B15D9B96899B1FA681C2A2F
:1018400010D107A811F032F9DAF8040007A900F066
:10185000EEF84246049907A812F07AFA059B04466E
:101860003360AAE76FF08004A7E72F68002FF9D054
:101870006B68032BF6D9B3683B60002C90D10498B9
:1018800012F096F904463846FEF7A6FE95E7FB6887
:10189000718D0193BB680498009398E80C0008F0E0
:1018A000BDF861E76FF0850487E72DE9F0418EB060
:1018B00003ACD0F8008006460D461746D2E9002159
:1018C000204600F0B1F840F20322B8F828309342E5
:1018D00003D0A3F50273012B0ED8B16811B96FF0D4
:1018E000800426E0F2681C2AF9D107A811F0DEF87E
:1018F000786807A900F09BF8B8F82830A3F50073C2
:10190000092B00F28A80DFE803F02F1824052A4112
:101910004D595E77D6E904122E68002EDFD06B6831
:10192000032BDCD9234607A807F082FC0446039B5F
:10193000336020460EB0BDE8F0812E68002ECED078
:101940006B68032BCBD9D4E90001224612F010FDBD
:10195000ECE794E8030012F02CFD0446E9E794E874
:10196000030007F029FCF8E794E8030007AA2E68B3
:1019700011F07BFB2B680446002BB0D06A681C2A50
:10198000ADD8304607A911F091F8D2E72B1D00938E
:10199000D5E9002394E8030011F0B9FB044650B9DF
:1019A0000024C6E72B1D0093D5E9002394E803002B
:1019B00011F007FCF2E700236B60BAE794E803003C
:1019C00012F018FDC9E7002205A811462E6800F0A4
:1019D0002BF82B68002B82D06B68032B7FF67FAF30
:1019E00094E8030005AB07AA11F01BFC044600288D
:1019F0009FD1059B3360D3E72E68002E3FF46FAF75
:101A00006B68032B7FF66BAF214607A812F085FBAE
:101A1000044600288DD1039BECE76FF0850488E72E
:101A2000D1E9000108F060B8C0E900217047886181
:101A30007047F0B585B06C4684E80300002403A825
:101A400016461F46039406F023FC2146009A039D88
:101A5000814202D16FF08B000BE02B4653F8184BFC
:101A6000944208D100202B693360D5E90223C7E9ED
:101A7000002305B0F0BD1D460131E9E76FF0850098
:101A80007047FEF7F1BE08B5036800209B689847D1
:101A9000002818BF6FF0910008BD0020704770B596
:101AA00004460E460025E368AB4201D8002070BD15
:101AB000606806FB030023682844DB69984710B977
:101AC000A3681D44EFE76FF09100F0E72DE9F04FB8
:101AD00003688FB006AA04460E46D3F80C8000F0C7
:101AE000F9FB00285FD10BA800F0E8FE01460028B2
:101AF0005CD1DDE9067A202206A8099D10F0FBFFE3
:101B00003146204606AA00F02CFD00284BD1834622
:101B100081462368DB8A5B4515D8002D35D12946DF
:101B2000204603AA00F05EFC00283CD1294620464E
:101B300003AA00F075FEB0BB204600F05AFE78B351
:101B40006FF083002FE0B3451CD05946204606AA0B
:101B500000F0C0FB38BB069BBB420DD10BA800F0C8
:101B6000ADFE48B9079B534506D9984528BF98460E
:101B70005B1B0793099B99445946204606AA00F02F
:101B8000F0FC80B90BF1010BC3E743462A46394606
:101B90002046CDE900A900F099F920B9002FCBD15A
:101BA000204600F082FB0FB0BDE8F08F6FF08B0095
:101BB000F9E770B50C461646054640B339B332B363
:101BC000098A012923D9032921D0E38A0229E2685D
:101BD000A08A4FEA431307D0904218D80C2002394C
:101BE000083300FB013307E0A2F11401C91A814256
:101BF0000DD390420BD81433934208D818220021F9
:101C0000284610F078FF0020C5E9004670BD6FF04F
:101C10008600FBE737B5054600F08FFD044658B94E
:101C20004FF08071284601AA00F0BEFB38B9284663
:101C30000199FFF74BFF0446204603B030BD10F179
:101C40008C0F18BF0446F7E700F09BBC10B58AB0B4
:101C5000144602AB01AA00F078FB40B9059B636013
:101C6000049B2360BDF81830A3600AB010BD6FF06C
:101C70008B00FAE72DE9F04393B00DF128080446F4
:101C8000894615460021202240461F461A9E10F024
:101C900032FF4FF6FF73CDE9053325B96FF08600AB
:101CA00013B0BDE8F083AB68B3F1807FF6D2236850
:101CB00049465A8A6B682046013B134452421340FE
:101CC0006B6005AA434600F040FB002840F0878087
:101CD000D5F808C005991CF4003F06D00D9A6B6832
:101CE0009A426FD10C90CDF838C006914FF6FF7331
:101CF000069A9A427CD121686B68898A8B42CDD83A
:101D000007A9CDE9028106A90191A96820460091A1
:101D100005998A1A18BF0122494600F0C1FB002824
:101D2000BED1002F6CD120460A9907AA00F078FD99
:101D3000002851D106994246204600F012FC014687
:101D4000002849D1DDE905539D4228BF1D462046A4
:101D50002A4600F0DCFC00283ED14FF6FF72059BBE
:101D600093420FD0069A93420CD09A4238BF1A463B
:101D70002046691C00F0CBFC70BBDDE905539D4299
:101D800038BF1D4623682046DA8A691C00F0BFFC74
:101D900010BB0A9B002B62D1002F60D0204600F0C0
:101DA00084FA00287FF47CAF4FF6FF7305999942BF
:101DB0003FF476AF069B99423FF472AF2046FFF79F
:101DC00085FE6DE70E9B424643F0807320460E93DE
:101DD00000F0C7FB002889D06FF0830060E710F1A6
:101DE0008C0F7FF45DAFAB68DB037FF559AF7DE708
:101DF00020460A9907AA00F0F5FA002891D0EBE7EF
:101E000023685B8A5A1E3242E6D17D1E1D445B4226
:101E10001D400C9B9E42DFD82A4631460D9800F0AB
:101E200041FD0028D8D11B9B4246CDE900532046F6
:101E3000334607A900F0C0F80028CDD10C9B3E44E2
:101E40000A999E422046079D88BF0C9600F028FA0A
:101E5000294607900A9A204600F080FB63E7204657
:101E600000F0C7FC002899D0B6E713B5002301AAFB
:101E7000044600F06AFA28B920460199FFF726FEC9
:101E800002B010BD6FF08B00FAE770B58CB015464C
:101E90001C4603AA04AB064600F057FA98B92A4636
:101EA0002146069800F0FEFC58B9109B224600938C
:101EB00030462B4604A900F05EF8002818BF6FF0EA
:101EC00083000CB070BD6FF08B00FAE72DE9F0478E
:101ED00086B01646DDE90E9703AA054688469A465F
:101EE00000F080FA044698B9059B414633442846E1
:101EF000059300F0D5F906467FB101464A462846CB
:101F0000CDE900A7039B00F0D4FB28B16FF0830458
:101F1000204606B0BDE8F0870127DDE903324A45D7
:101F20000AD2A9EB0201CDE900212846314600F092
:101F3000C0FB0028EAD1012742462846039900F059
:101F40000DFB4146284603AA039600F069FC0446AF
:101F500028B142463146284600F000FBD8E7B8F1E8
:101F6000000FD5D0002FD3D06B683146DB682868CE
:101F700098470446CCE72DE9FF410D46164609680F
:101F800001AA04461F46DDF8288000F02BFA70B93C
:101F900001994B1C0BD062686B680A9755684246E2
:101FA000AC462068334404B0BDE8F04160476FF0B0
:101FB000830004B0BDE8F0812DE9F3471546DDE963
:101FC0000AA90F4698461168044600F069F96B6843
:101FD0007A689844A8EB0203CDE90023064601463F
:101FE0003B68204600F065FB20BB6368CDF800A08D
:101FF000D3F808A04A46434631462068D047C8B9BE
:10200000EB686A68B9681A4423682046DB685B1A83
:102010009B1ACDE9002331463B6800F04AFB48B9E2
:102020002B683BB1314663682068DB6802B0BDE8CD
:10203000F047184702B0BDE8F08713B50C2404FB45
:1020400001F3416800948C68083341690068A04737
:1020500002B010BD436810B5416904461B690068B1
:10206000984750B923681A8A022A06D96268A1687B
:102070001846BDE810401269104710BD008A0228BA
:1020800014BF03380020704708B5FFF7F7FF0C2393
:1020900000FB033303EB4110083008BD2DE9F04F7E
:1020A000002405460F46904626464FF00C098BB09B
:1020B000D5F800A05046FFF7E1FF013086420ED36D
:1020C00000264FF02009D5F800A0BAF816309E423D
:1020D0001DD3002088F800400BB0BDE8F08F09FB4D
:1020E00006F36A68CDF80090D2F804B0394650463D
:1020F000083302AAD8470028EED102AB13F8012B0F
:1021000001300C2884EA0204F8D10136D0E76B686C
:1021100031465046D3F804B0FFF7B6FF02AA034693
:1021200039465046CDF80090D8470028D4D102ABAC
:1021300013F8012B0130202884EA0204F8D101367B
:10214000C1E737B5837B01685A1CD2B28273097E1E
:1021500004469142416904BF02338373012900F1AF
:102160000D020DD8FFF79AFF40B90822636800926C
:102170009D6861690346A2182068A84703B030BD76
:102180006FF08600FAE713B50C4611462279034634
:10219000012A09D1036862791B7E9A4214BF00208C
:1021A0006FF0830002B010BD022A04D11B68A2792F
:1021B0001B7E9A4202D16FF08300F3E701290DD80C
:1021C0000DF10702FFF76AFF0028EBD162799DF855
:1021D00007309A4218BF6FF09100E3E76FF0860076
:1021E000E0E70822F0B5436887B000925C680023FE
:1021F0006A44054619460068A0470246002832D0C6
:1022000000264FF0FF3408226B6800925F680121BE
:102210000023286804AAB84700283AD1012228469A
:1022200004A9FFF7B0FF0346002832D1002E35D0B5
:102230002A689DF81610127E9DF80E00B2FA82F2FE
:102240005209914218D1002914BF022301231B1AFD
:1022500018BF01231C462C61B4FA84F400206409E1
:102260006C6107B0F0BD284602A9FFF78CFF044659
:102270000028C5D10126C6E7904205D1002814BF29
:10228000022201229142E5D188422CBF0023012382
:10229000E0E7002EDFD16FF08300E2E70124DAE708
:1022A00009B9406970478068704710B50446FFF768
:1022B00048FF70B963686169DB682068984740B976
:1022C000D4E904232046C4E90432BDE81040FFF7F6
:1022D000C1BE10BDF7B5066805463046FFF7D4FE0F
:1022E00003462020696800904F68304629691446EB
:1022F000B847064640B92868FFF7C0FE236801309A
:10230000834204D36FF09706304603B0F0BD04F16A
:10231000140000F0D3FA0028F6D12D68E268AB8AE9
:102320009A42EFD8A3689A42ECD3D4E900372BB98C
:102330002846E98AFFF7A8FEB842E3D83946E8689C
:1023400000F0B0FA0028DFD0DCE72DE9F0430746C3
:10235000884691461C46002589B03B68DB8AAB4223
:1023600002D86FF08B0616E06A4629463846FFF71A
:10237000B1FFB0B90C22414605A813F0CDF80646CE
:1023800068B9C9F8005034B16D460FCD0FC495E857
:102390000F0084E80F00304609B0BDE8F083013536
:1023A000DBE76FF08306F6E7F0B505460E46174605
:1023B000002489B02B68DB8AA34202D86FF08B001F
:1023C00009E06A4621462846FFF784FF38B9049B96
:1023D0001E4202D03C6009B0F0BD0134EAE76FF064
:1023E0008300F8E773B506460C2000FB01F3716823
:1023F00000904C683068316908331546A0470446A0
:1024000030B9336829681A8A914204D36FF097046F
:10241000204602B070BDD868D5E9011200F042FA3A
:1024200004460028F2D12B68012B03D83068C18AFA
:10243000FFF72AFE6B688342EAD0E7E7F7B50C2680
:1024400006FB01F3416800964F68083301690546B1
:1024500000681446B847034630B92B6821681A8AC9
:10246000914204D36FF09703184603B0F0BDD868CB
:10247000D4E9011200F016FA03460028F2D12268CE
:10248000012A09D82A681046FFF7F8FDD18A00FB17
:10249000066649010831881962688242E4D0E1E7A2
:1024A0002DE9F04F05468B4691469846002789B0A6
:1024B000DDE9146A2868FFF7E1FD0130874202D3A5
:1024C0006FF08D0420E0524639462846FFF78AFF18
:1024D000044680BBDAF8082090452AD82B68594674
:1024E000DB6837609B1A73600C22C6F80C8006F11B
:1024F000140010F0DBFA129BB4603361DAF8083094
:10250000A3EB0803CAF8083000262B68DB8A9E423A
:1025100005D26A4631462846FFF7DCFE70B14FF619
:10252000FF766FF08D042046139B1E6009B0BDE856
:10253000F08F0137BEE76FF08304E5E705A800F0F0
:10254000BDF948B1B9F1000F04D0002C18BF6FF0ED
:102550008D04E8E74FF001090136D6E702B181604A
:10256000704773B5056804462846FFF78DFD03469E
:102570002020616800908E6828466169B04702B0EB
:1025800070BD70B58CB00546FFF72BFE002861D1F9
:102590006E696B6831461B692868984704460028B5
:1025A00078D1B6FA86F16B6828681B6949099847A3
:1025B000044600286ED12A680126137EB3FA83F3FD
:1025C0005B09AB73138AC5E90406022B14BF02230F
:1025D0000123AB6002232B73D18A1046FFF754FD11
:1025E000D36821461B1A029001AA2846039301963C
:1025F000FFF723FD044600284CD106462B680290C5
:10260000DB6803932B681846FFF738FDB04223D8E8
:10261000002C4BD12B681846FFF730FDA04228D87C
:102620002022002104A810F066FA00242B68DB8A1F
:10263000A34232D82846FFF784FD48BB6B6869691E
:10264000DB6828689847044620BBD5E90423C5E920
:1026500004321FE000269CE7198A6A68022914BF29
:102660000321002118463144126990470136044382
:10267000C8E71B8A2846022B14BF032300232344E8
:102680000134214601AA0193FFF7D7FC0028C1D0ED
:102690006FF0830420460CB070BD2146284604AA82
:1026A000FFF75FFF0028F3D10134BFE76FF091041B
:1026B000F0E72DE9F04F0446884616469946C3B028
:1026C000DDE94CA51DB9284643B0BDE8F08FB5F54E
:1026D000807F2F4628BF4FF4807763680097D3F838
:1026E00004B049465346206802AAD8470028EBD1D7
:1026F00063680097D3F808B041463346206802AAC1
:10270000D8470028E0D13E44BA44ED1BDAE773B560
:10271000066804463046FFF7B7FC154602462946D0
:102720003046FFF7B1FC801ACDE900202046D4E9FD
:102730000431FFF7BEFF02B070BD2DE9F0414368E0
:1027400005461B68006886B09847044628B92846A5
:10275000FFF747FD28B16FF08304204606B0BDE8BF
:10276000F08108266B6805F108070096D3F804800D
:102770003A46234629692868C0470028EBD13946E4
:1027800028462A69FFF7FFFC0028E4D12846FFF716
:1027900061FC04460028DED12B7B012B24D10146AD
:1027A00003AA2846FFF74AFE04460028D5D1059B18
:1027B0002A68C3F1FF23D26803F57F03F83313447B
:1027C000CDE90063324628462B696969FFF771FF3E
:1027D00004460028C1D16B7B2846AB7302232B73C0
:1027E000FFF763FD0446B8E7022B18BF6FF08304C0
:1027F000B3E710B586B0002103AA0446FFF7F2FD47
:1028000060B92068049A059BD118C36820465B1AFA
:10281000CDE90023D4E90431FFF74BFF06B010BD2A
:10282000F0B504460D4687B009B9436913602946DF
:102830002046FFF702FC0146D0B9D4E904768DB9F1
:102840000C2200212068FFF71FFC05FB0222083242
:10285000801ACDE900203B4631462046FFF729FF8C
:1028600007B0F0BD204603AAFFF7BCFD014610B13A
:102870006FF08300F4E7204603AA0396FFF7DDFB21
:102880000028F5D1012DDBD00C2314226B430C3B27
:10289000019331463B4620460092FFF70AFF00288D
:1028A000CED0DDE7814206D8401A90422CBF0020EE
:1028B0006FF0860070476FF08600704700F10C03E0
:1028C000984202D16FF08B00704710F8012B002A5C
:1028D000F6D000207047F0B503680446A3F2F23347
:1028E000A7B0032B00F21B81DFE803F00259A1A47B
:1028F0000023C269169300F11C03002A38D004217A
:10290000E26A04F12C03002A3ED004222369042B3E
:1029100043D1206A042840D801293ED1012A3CD164
:102920000021606806AA05F04BFC042835D1A26896
:10293000069B002A2ADB022B18462ED8B2F5807F90
:102940002BD1216A16AA03F081FA30BB0146236A13
:10295000606816AA05F040FC002066E00029CFD090
:1029600053F8040D0A4601390028F7D01146C7E78D
:102970000321F5E7002AC9D053F8045D1046013A57
:10298000002DF7D00246C1E70322F5E703F1080066
:102990000228069001D9022BD3D9012045E0C26953
:1029A00000F11C033AB30422E16A04F12C0371B371
:1029B00004212369042BF0D1012AEED10029ECD1A6
:1029C000606816AA05F0FCFB0428E6D1A268169BF5
:1029D000002A1EDB022B1846DFD8B2F5807F1FD0FD
:1029E000DBE7002AE0D053F8040D1146013A002835
:1029F000F7D00A46D8E70322F5E70029D9D053F8E3
:102A0000045D08460139002DF7D00146D1E70321C6
:102A1000F5E703F1080002281690BED9022BBCD8B6
:102A200003F04CFA003818BF012027B0F0BD02F0C7
:102A30004DFD91E700253C22294607A8CDE9025526
:102A4000CDE90455069510F056F83C22294617A802
:102A5000169510F050F8E269019504F11C0302B3D9
:102A60000426E26A04F12C033AB30425731E012BF9
:102A700093D8012D91D80423002160680DEB030247
:102A800005F09EFB04281AD06FF08000CDE7002EE1
:102A9000E7D053F8041D3246013E0029F7D0164610
:102AA000DFE70326F5E7002DE0D053F8041D2A46A2
:102AB000013D0029F7D01546D8E70325F5E7022E9A
:102AC00022D16669402E27D806AF33463A46012107
:102AD000606805F075FB8642D6D1CDE9027602A981
:102AE000A5B1236A402BCFD816AACDE904230198BB
:102AF00004AA03F02BF9DDE90423054600216068F0
:102B000005F06AFB284690E70021E9E72A4601988C
:102B100003F01CF90546F5E76FF0890085E76FF0D3
:102B2000850082E708B503F08FF9002814BF6FF025
:102B30009200002008BDCA0448BF41F480618B04A4
:102B400048BF41F40061816070470000871A0000AF
:102B5000750B0000310B00009B1A00009F1A00004B
:102B60000100000002000000040000005B4552521A
:102B70005D5B43727970746F5D20556E7375707014
:102B80006F727465642072657175657374210D0AC6
:102B9000004D62656420544C5320332E362E320093
:102BA0004372656174696E6720616E20656D707433
:102BB000792049545320666C617368206C61796F89
:102BC00075742E0D0A004372656174696E67206129
:102BD0006E20656D70747920505320666C61736847
:102BE000206C61796F75742E0D0A000000000000E2
:102BF00000000000000000000000000000000000D5
:102C00006FF47A72F0B5474B0446186003688DB0D4
:102C10001344042B08D8DFE803F003274867770044
:102C200003698668082B02D06FF0800559E085693A
:102C3000042DF9D10021406808AA05F0C1FA08283E
:102C4000F2D12B460221606806AA05F0B9FA0428E1
:102C5000EAD1069B3046019363690093DDE90823BE
:102C600000F006FD05463CE00369082BDCD1456910
:102C7000042DD9D10021406808AA05F0A1FA08283E
:102C8000D2D12B460121606805AA05F099FA0428E3
:102C9000CAD106AB0293236A0193059B0093A068F7
:102CA000DDE9082300F0FAFCDCE70369082BBBD15F
:102CB000076A0C2FB8D10021406806AA05F080FAF7
:102CC0000828B1D1DDE9062308AE0096A06800F01F
:102CD000F9FC054628B901463B463246606805F0D6
:102CE0007BFA28460DB0F0BD0369082B9CD100216A
:102CF000406808AA05F064FA082895D1DDE90823A0
:102D0000A06800F0F1FCADE7056A042D8CD100F05D
:102D1000FEFC2B4608900021606808AA05F05CFACA
:102D20000025DEE7101D002038B5074B02461D6860
:102D30000C460B466868012105F042FA844214BF34
:102D40006FF08000002038BD101D00200B460549A3
:102D500010B40C680246002160685DF8044B05F071
:102D60003BBA00BF101D002008B5074907480FF007
:102D70004CFF00F00DF830B100F0D7FC18B9BDE8F9
:102D8000084000F005B808BD00025005F838000002
:102D900010B5044C204600F0C7F9034B383C5C608A
:102DA00010BD00BF680C0020141D00202DE9F04765
:102DB000DFF864A01F46534681468846164600F059
:102DC000DDFA044600BB134DDAF800002946C5E9D8
:102DD0000498AE6100F0D8FC044678B9AE6ABE42F1
:102DE00015D3089BF61B9E4228BF1E4605F13800EE
:102DF00031463844FFF7AAFF099B1E6040F648029F
:102E0000002104480FF077FE2046BDE8F0876FF000
:102E10008604F3E7300C0020141D00202DE9F74F45
:102E2000DDF830A08046BAF5006F0F4691469B460C
:102E300068D8364E334600F0A1FA0446002843D144
:102E4000334D30682946C5E90487C5F8189000F06D
:102E50009BFC044670BB2B6BDB0750D40123C5E9F8
:102E60000BABD6F800B051462A480193FFF75CFF40
:102E70000446F8B9019B264D18462449C5F828A0F8
:102E800000F0F4F90446A8B929463068C5E904877A
:102E9000C5F8189000F0BBFC044658B94A464046B5
:102EA00039461A4B00F014FA0446E8B100213068A4
:102EB00008F0D2FD40F64802002115480FF01BFE35
:102EC000204603B0BDE8F08F10F18C0FF2D1104C0A
:102ED00040F64802002120460FF00DFEC4E90BAB7E
:102EE00002234FF0000BBEE7BBF1000F03D100F04F
:102EF00081FA0446DEE7584600F00BFCF9E76FF074
:102F00008404D7E76FF08604DAE700BF141D0020C1
:102F1000300C0020680C00202DE9F047DFF84CA0B1
:102F20001E46534681468846174600F027FA044657
:102F3000B0B90D4DDAF800002946C5E90498AF6133
:102F400000F022FC044628B9AB6A7360EB6A336078
:102F50002B6BB36040F64802002103480FF0CBFD15
:102F60002046BDE8F08700BF300C0020141D002073
:102F70002DE9F843DFF86480074643460E46914644
:102F800000F0FCF9044600BB134DD8F800002946B8
:102F9000C5E90476C5F8189000F0F6FB044670B950
:102FA0002B6BDB0714D44A463846314600F0FCF957
:102FB000044620B9D8F8000000F0ABFB044640F608
:102FC0004802002104480FF096FD2046BDE8F88332
:102FD0006FF08404F3E700BF300C0020141D0020C4
:102FE000F0B500250A4CD4E910768E4208BF87421E
:102FF00005D1A66C964202D100201D60F0BD0135BE
:103000000B2D04F12004EED16FF08B00F6E700BF2A
:1030100078140020002070B5DEB0029000F050FC63
:10302000044618BB02A900F040FC0446F0B9102188
:10303000314800F0E9F90446C0B9304D029E2846F7
:1030400000F040FA044678B94FF4B47205F1280153
:1030500003A85D960FF02AFD4FF4B672284603A927
:1030600000F0BEFA044620B100F018FA20465EB027
:1030700070BD00F013FA04460028F7D195F891616D
:103080002B4600904FF4C8720021701C08F086FC9B
:1030900004460028EAD195F89031039003A9012055
:1030A00085F8913185F89061029D00F0FEFB58B1E2
:1030B0006FF08304DAE7012000F002FC04460028E8
:1030C000D4D1039B01330393039B9D42F3D8022089
:1030D00003A900F0EAFB0028EAD1039B9D4201D836
:1030E0000024C3E7022000F0EBFB04460028BDD11A
:1030F000039B01330393F0E7200C00207814002099
:1031000010B5084C4FF4CC72204600210FF0F3FCB0
:103110000123A4F8903184F82830BDE81040FFF76F
:1031200079BF00BF78140020002270B54D4D88B0E3
:1031300002AE04904FF4C87301200021CDE900567F
:10314000CDE906220395ADF8142008F045FC10B136
:1031500001238DF81430049B0022009302204FF4C9
:10316000C8730021019608F037FC10B101238DF8D7
:10317000153000F007FB044678BB10213A4800F0F8
:1031800043F9044648BB06A900F08FFB044638BB50
:103190003146012000F089FB044608BB022007A944
:1031A00000F083FB0446D8B9079A029B9A429DF827
:1031B000143018BF0790012B03D0002003A900F0A2
:1031C000B6FA9DF81530012B03D0012003A900F0B9
:1031D000AEFA00F063F9044628B1204608B070BD8D
:1031E00000F05CF9F9E7039B049993F82830012B70
:1031F0001CBF01238DF8143091F82830012B1CBF1F
:1032000001238DF8153040F20113BDF814209A42C5
:1032100023D09DF81430012B07D14FF4C872114808
:10322000A5F890310FF042FC07E09DF81530022B15
:1032300011D04FF48073A5F8903195F891010021D9
:10324000013008F009FC10B110F18C0F08D10548CD
:1032500000F030F9C1E70123DFE76FF08304BCE73A
:103260000446BAE778140020200C002070B50D4603
:1032700048B300231C46154AD2E91016314304F125
:10328000010106D00B2919D01C46203223460C46DA
:10329000F2E70B2900F1FF300FD020320028F5D1E2
:1032A0002346DC1C2046002108F0D6FB10B110F1AB
:1032B0008C0F01D100202C6070BD0A230028F0D0B3
:1032C0006FF08D00F8E76FF08600F5E778140020C6
:1032D0002DE9F0471E4600238146884617468AB0EE
:1032E000244D02AC01930FCD0FC495E80F0084E884
:1032F0000F003A464846414601ABFFF771FE1E4DAE
:10330000824668B9019C202205EB441430342146E2
:1033100002A80FF0CBFB2022514620460FF0EBFB1A
:1033200033687168DC1E05EB431343E9089805EB2D
:1033300044131C463034102220469F640FF0B6FB25
:10334000FFF768FE064688B1DDE90632134308D070
:10335000019B202205EB431502A905F130000FF077
:10336000A5FB2022002120460FF0C5FB30460AB005
:10337000BDE8F087D83800007814002037B51D4626
:1033800001ABFFF72DFE044648B9019B0549DA1C45
:103390002A606868102201EB43110FF087FB20467A
:1033A00003B030BDA8140020002330B58BB00193CA
:1033B00001ABFFF715FE0446B0B9019B0C4D20226E
:1033C00005EB4315294602A80FF070FB2146202289
:1033D00028460FF090FBFFF71DFE044620B1202287
:1033E000284602A90FF062FB20460BB030BD00BF9B
:1033F000A8140020034B002193F89101013008F03C
:103400002BBB00BF7814002030B589B004460D46B0
:103410001C22002101A80FF06EFB0023009385B34E
:103420007CB34FF44072184B6846CDE90323174B29
:103430001749019308F03EFA08BB40F201116846B3
:10344000144A08F0F1F9A8B92B46224640F20321AC
:10345000684608F053FA68B90F4C6946224601A83D
:1034600008F074FA30B9684608F002FA38B12068FA
:1034700008F020F9684608F0FBF96FF0830009B006
:1034800030BD6FF08600FAE700025005002480008E
:10349000090100085C81FF7F1C1D002008B5044B5A
:1034A000186808F007F9002818BF6FF0830008BDFE
:1034B0001C1D002000F11C010C2201480FF0F6BA7F
:1034C000201D00201FB50822184904460DEB0200FC
:1034D0000FF0ECFA042216490DEB02000FF0E6FAA9
:1034E000029B039A013342F10002CDE902321343F9
:1034F00014D008220D480DEB02010FF0D7FA042278
:103500000B480DEB02010FF0D1FA0C22074904F130
:103510001C000FF0CBFA002004B010BD019B01335A
:103520000193002BE5D16FF08300F5E7201D00200B
:10353000281D0020F0B5054689B010980F9FCDE9F1
:103540000012CDE904700E98119ECDE902300C48AE
:1035500006960C230B49006805F11C0208F0C8F818
:10356000044650B931681022103931602846394478
:103570000FF09CFA204609B0F0BD6FF08304F9E724
:103580001C1D0020000250052DE9F0411D460F468C
:103590009046044688B00E9E0146102298190FF0FE
:1035A00085FA119B10360693109BCDE902560593C0
:1035B000CDE900780F9B0848049308490C2304F1D7
:1035C0001C02006808F0E2F8002818BF6FF09400B1
:1035D00008B0BDE8F08100BF1C1D002000025005AE
:1035E00000B58BB009AB06931023CDE9040300238B
:1035F000CDE90012CDE9023300F11C0208480C238A
:103600000849006808F074F838B9099B102B18BFF6
:103610006FF083000BB05DF804FB6FF08300F9E7F7
:103620001C1D00200002500500B58BB009AB0693AD
:103630000023CDE904331023CDE90012CDE90203C4
:1036400000F11C0207480C230749006808F09EF8A7
:10365000099B184314BF6FF0940000200BB05DF875
:1036600004FB00BF1C1D002000025005FFF77CBBBF
:1036700030B4194604461046DDE9022350EA01053C
:1036800005D0072B07D8224630BCFFF7C7BB6FF029
:10369000860030BC70476FF08500FAE770B41946B9
:1036A00004461046DDE9033250EA0106059D05D0C7
:1036B000CDE90325224670BCFFF778BB6FF086008A
:1036C00070BC7047194610B40446104650EA010217
:1036D000019B04D022465DF8044BFFF71DBC6FF040
:1036E00086005DF8044B7047194652EA010310B595
:1036F0000446104608D02246FFF73AFC10F1950F19
:1037000008BF6FF0830010BD6FF08600FBE700205C
:10371000704710B50446FFF76DFE014620B92046FC
:10372000BDE8104008F098B910BDFFF7E9BC70B5CE
:1037300051F82060DCB0CB684FF4B47205460C46FB
:1037400001A806F128015B930FF0B0F94FF4B672AF
:10375000304601A9FFF768FF80B1236983B14FF4B8
:10376000B672304601A95B93FFF75EFF00280CBFDD
:10377000032301232C4423725CB070BD0223F9E7BC
:103780000123F7E700207047002270B58EB005AB2B
:10379000019301F11C030C460093114640F61C03F3
:1037A000064608F019F968BBD4E90423CDE90823DB
:1037B000A3690422069607A90BA808AE0793059DE6
:1037C0000FF074F9314608220CA80FF06FF90C21A4
:1037D0000BA8FFF719FEA8B94FF402620C3D04F1E3
:1037E0002803CDE90132204604220396009506A95C
:1037F000FFF7CAFE10B9089B9D4205D0FFF74EFEA9
:103800006FF083000EB070BDFFF748FEFAE72DE9B8
:10381000F041D1E904238CB0CDE906238B69042261
:103820008E6A049005460C4609A805A906AF0593C3
:103830000FF03CF9082239460AA80FF037F90C219D
:1038400009A8FFF7E1FD0146E0B92046FFF73AFE7F
:103850000146B8B94FF4026206F1100804F12803DA
:10386000CDE90132204604220397CDF8008004A957
:10387000FFF760FE10B9069B984507D0FFF70EFED4
:103880006FF0830108460CB0BDE8F081FFF706FE3B
:1038900001460028F6D1009004F11C03284606F1E9
:1038A0001C0208F07BF80146ECE70A4608B5042143
:1038B00008F000F9002814BF6FF08300002008BD55
:1038C00008B508F0DFF8002814BF6FF0830000206F
:1038D00008BD000000000000000000000000000023
:1038E00000000000000000000000000000000000D8
:1038F00000000000000000005B494E465D5B505335
:103900005D20456E6372797074696F6E20616C67BB
:103910003A20307825780D0A0000000000000000F1
:1039200028470000010000002980000001800000FD
:10393000887C010060A500204E000000507C010042
:10394000401D00200E000000407C0100200C0020E3
:103950000400000098A6002030070000781D002019
:10396000FA210000300C002044040000000C00206C
:103970000800000003F076BC08B572B61E4A1F4B63
:103980009A601F4B83F309881E4B83F30A8883F3E5
:103990000B881D4B16A1D1E90001C3E9000100F01D
:1039A0005DF81A4B1A498B4212D30020194B1A4961
:1039B0008B4218D304F04CFB186850F8224058682A
:1039C00040F82240013298688242F5D30C33EAE78E
:1039D0000022F8E71C6844F8220001325C68A24229
:1039E000F8D30833E4E70022F8E700BFAFF3008024
:1039F000A5EDF5FEA5EDF5FE0000000000ED00E0F0
:103A0000F80B002000040020F80B002030390000E3
:103A1000543900005439000074390000EFF3088075
:103A2000EFF309812DE9F00F6B46724600F038F98B
:103A300008B0FFF79FFFFEE74FF47F03D3F8302174
:103A4000D3F83431072A05D1023B032B02D8024AAE
:103A5000D05C704700207047BE790000824A08B5EC
:103A6000D2F8D03043F00203C2F8D030FFF7E4FFC1
:103A700058B17E4BD3F8202A3AB90D21C3F8201A49
:103A80000121C3F81C19C3F81C290022D30003F537
:103A90007F03D3F80013013107D0D3F800130132AC
:103AA000D3F80433202A0B60F0D1FFF7C5FF0028BC
:103AB00040F0B980FFF7C0FF40B16D4B6D4AC3F8CD
:103AC00030254FF050230122C3F858254FF47F03CF
:103AD000D3F83021D3F83431072A09D1023B032B24
:103AE00006D8654AD35C1BB10022644BC3F84C2551
:103AF000FFF7A2FF50B14FF05023D3F80024D007B6
:103B000042BF0022C3F81421C3F818214FF47F03E9
:103B1000D3F83021D3F83431072A09D14FF050239C
:103B2000D3F80024D10744BF6FF00102C3F800248A
:103B3000FFF782FF18B165224C4BC3F80C274FF4F6
:103B40007F03D3F83021D3F83431072A16D14B4BF9
:103B5000D3F82034002B11DA4FF050230322C3F89E
:103B6000182501229A60D3F80421002AFBD00022F4
:103B7000C3F804210122DA60C3F818254FF47F034B
:103B8000D3F83021D3F83431072A23D1023B032B59
:103B900002D83B4AD35CEBB17E22344B3449C3F8A4
:103BA0000C27C3F83C297F23364AC2F8183100237A
:103BB000C1F8043EC1F8083E01F54821C1F81031B2
:103BC000C2F82431C2F82C3102F5FF1202F58052FE
:103BD000C2F8A0322C4B9A6AD2072CD50121244A74
:103BE000C2F80415D2F800140029FBD09A6A22F01A
:103BF00001029A621E4BD3F80024002AFBD0002257
:103C0000C3F80425D3F80024002AFBD0BFF34F8F5C
:103C100015491E4BCA6802F4E0621343CB60BFF340
:103C20004F8F00BFFDE72922104BC3F80C2703225A
:103C3000C3F83C273EE70C4AD2F88C1041F44061AF
:103C4000C2F88C1018681249C1F84405DB69C1F844
:103C50004C35D2F8883043F47003C2F88830BFF393
:103C60004F8FBFF36F8F08BD00ED00E000400050A4
:103C7000009003504400EFBEBA79000000200350CA
:103C8000B6790000002000500080FF000400FA0513
:103C9000006000507C2201490EF008BF3CAC0020BF
:103CA00038B51D46384B394C5B68C3F308032360B5
:103CB000EFF3038363655306C4E90120E16039D55E
:103CC00002F00C020C2A08BF08460146206120229F
:103CD0002F480EF0EBFE25B1202229462D480EF08C
:103CE000E5FE294B9A6AA265D96AE165986B206660
:103CF00002F400406066586BA06602F08000E06647
:103D00009A62D962D3F8E42023482267D3F8E810F6
:103D1000616702F04001A167C3F8E4200E2101F0C1
:103D20008DFE2268D31E042B22D8DFE803F00F1586
:103D3000181B1E00EFF39483990704D5130702D5CF
:103D4000EFF38980C1E7EFF38880BEE70C211348C9
:103D5000BDE8384001F072BE12211148F8E70B218E
:103D60001048F5E70D211048F2E70E210F48EFE764
:103D70000F2A98BF1421BDE8384089BF25210C487F
:103D80000C48103A02F03EB900ED00E03CAC0020D7
:103D900050AC002070AC0020C2790000D079000047
:103DA000DC790000EE790000F9790000067A000065
:103DB000147A0000287A00002DE9F34106460F46E8
:103DC0000C4DD5F82C80C04710F00104FBD13946CA
:103DD00030466B69984740B9C047C307FCD42B6A8B
:103DE000019302B0BDE8F0411847204602B0BDE89B
:103DF000F08100BF507A000010B5094C0020A36884
:103E000098472369022098474FF4E131A46A0120C2
:103E1000A04701211520A0470122024B1A6010BDC6
:103E2000507A0000B8AC0020064B82B0186800231E
:103E300082B262F30F03000C60F31F43184602B016
:103E4000704700BF987A0000014B1869704700BFA7
:103E500064A50020014B5869704700BF64A500208D
:103E600010B5044C204600F025FF002084F8240003
:103E700010BD00BF64A5002038B50C4D0C4695F868
:103E8000243013B94FF0FF3038BD0A4601462846AA
:103E900000F0A0FF064B984205D00B3B9842F1D1B1
:103EA00000206C61F0E76FF00100EDE764A50020F1
:103EB0000B00AD0BF0B51B4E054696F824300C46B2
:103EC00091B01BB94FF0FF3011B0F0BD00F060436E
:103ED000B3F1005F21D100230A460146304600F0CD
:103EE0000BFC114B98421AD00B3B9842EAD134613B
:103EF00011E0A71B402F28BF4027A9193A46684662
:103F00000EF0D4FD39466846FFF7D4FF0028DBD118
:103F10004036B442EDD80020D6E70026F9E76FF02E
:103F20000100D1E764A500200B00AD0BC3B2012B4B
:103F300030B540F0A2804DF6C023994276D028D803
:103F4000B1F5615F75D011D8B1F5965F73D008D81F
:103F5000B1F5966F71D0B1F5166F71D06FF00700A3
:103F600063E0B1F5165FF9D14B4B33E047F612230E
:103F7000994268D007D8B1F5964F67D0B1F5E14FB7
:103F8000ECD1464B26E0B1F5164FE7D14FF41D03B7
:103F900020E0434B99425BD011D8B1F5E13F5AD0B4
:103FA00007D8B1F5614F59D0B1F5963FD6D13D4B09
:103FB00010E0B1F5613FD1D14FF06C730AE0B1F57B
:103FC000612F4ED0384B99424ED0B1F5E12FC5D17B
:103FD0004FF0E86310F4E06F52D110F4404403D086
:103FE000B4F5804F4FD11024304900F44052B2F55F
:103FF000805F8D8B3BD0B2F5005F3BD0002A45D16E
:1040000010F4403003D0B0F5403F42D101204A7651
:1040100022432A430876024300200B628C768D836C
:104020000968C1F82435C1F86C2530BD4FF465032B
:10403000D0E71F4BCEE71F4BCCE74FF49E23C9E7D9
:104040004FF41D23C6E74FF40003C3E71A4BC1E743
:104050004FF08063BEE74FF0EB73BBE74FF46B03A9
:10406000B8E74FF07063B5E74FF08053B2E7002533
:104070000E22C5E74FF48075FAE76FF00300D4E72E
:104080006FF00800D1E76FF00A00CEE76FF009008B
:10409000CBE76FF00B00C8E70050270000C07500A9
:1040A00090D0030000903A0140420F0064A5002028
:1040B00000F03A0000B0130000A04E0010B58EB022
:1040C0002822002104A80EF016FD4FF0FF33CDE9A1
:1040D0000033CDE902334FF0EB7368460A930723B0
:1040E000104C8DF83530D4E9021201F0C5FC0146C0
:1040F0000022204600F052FA0B4B98420ED1DDE927
:104100000B0100230A9AA061226201221846C4E929
:104110000433A18384F824200EB010BD6FF0010099
:10412000FAE700BF64A500200000AD0B036803F0B0
:104130001F025B09026004D0012B034818BF002056
:1041400070470248704700BF002884500025845003
:104150007FB500250C46C0F808511646D0F8082156
:10416000D0F8002222F02002C0F80022104AC0F845
:10417000082301F0D1FCA560256104F14C03D3E8CC
:10418000EF1F21F47F0121F47041C3E8E21F002AF0
:10419000F5D11022294668460EF0ADFC042368468E
:1041A0008DF800300196D4E90013984704B070BD33
:1041B00010020A00044B054A1B68B3FBF2F3584394
:1041C000034B43F00103184760A5002040420F0055
:1041D000A07A000007B5019001A8FFF7A7FF019B97
:1041E00000EB8300D0F80022034B1340C0F80032EC
:1041F00003B05DF804FB00BFF0F0FCFF2DE9F04FC9
:10420000804690F804A05020664F0E4600FB0A70CE
:10421000416885B049B113F0020304D0836B002BD1
:1042200000F0B2800123009300E000914FF05009AC
:1042300009FB0A73DB6CD90600F1A6804FF0010B75
:10424000B3180293029BB34200F0A78006F06043CC
:10425000039398F80450D8F8004009FB05739A6B53
:104260009AB9039BB3F1005F40F09980019200F08E
:10427000F3FD09FB0572D16C204601F0010101F04C
:1042800019FC28B900F0F0FDE3E701230193EEE704
:10429000516C33460029BCBFD4F84C155164019AC7
:1042A00042B109FB05713078D1E90E23D054D1E930
:1042B0000E3213441BB1C4F84435C4F848B500228B
:1042C000C4F82021D4F82011C4F85821D4F858118A
:1042D000C4F85021D4F850210822C4F80025009ACF
:1042E000E2B14FF48003C4F80433C4F808B000F01E
:1042F000BBFD502303FB0A72516800294BD1D26CDD
:10430000120748D503FB0A734C33D3E8EF1F21F0A3
:104310000801C3E8E21F002A36D0F6E7C4F808B067
:10432000019300F0A1FD09FB0572D16C019B01F026
:1043300001012046019301F0BDFB8446019BD4F8A6
:104340004C05D4F84425BCF1000F0DD19342F0D0B8
:1043500005EB850507EB0515D1B100F07DFD29467C
:10436000204601F0EBFBC2E705EB8505934207EB26
:104370000515F1D10028EFD100F06EFD2946204649
:1043800001F0DCFB00F070FD074805B0BDE8F08FE0
:10439000C4F80CB0E1E7013654E70448F5E70448F7
:1043A000F3E700BFBCAC00200800AD0B0000AD0B74
:1043B0000400AD0B07B5019001A8FFF7B7FE019B04
:1043C00000EB8300D0F80022044B134043F00303BA
:1043D000C0F8003203B05DF804FB00BFF0F0FCFF52
:1043E00007B5019001A8FFF7A1FE019B00EB830038
:1043F000D0F80022044B134043F00203C0F800320F
:1044000003B05DF804FB00BFF0F0FCFF2DE9F347BB
:104410000C4694F83330054690F804800968002B68
:1044200036D150235A4F03FB0873DE6C46F00072FE
:10443000DA644A1C0AD001A80191FFF777FE012334
:10444000019A934083600846FFF7B4FF6068431CFD
:1044500001D0FFF7BFFE94F82C30012B18D1502368
:1044600003FB0873E06846F02066421CDE6401D05E
:10447000FFF7B0FEA668731C0AD001A80196FFF7EB
:1044800055FE0123019A934083603046FFF792FF67
:1044900094F832703FB950223D4B02FB0833DA6C7E
:1044A00042F08072DA6494F82C6094F82D0094F84D
:1044B0002E90B4F830A0A26A2B68D4F80CC0D4E9CE
:1044C000018E40EA0900C3F824254AEA06020243A5
:1044D000C3F86C254FB9012EC3F80C15C3F8148529
:1044E00004BFC3F808E5C3F810C5D3F8682503F284
:1044F0006457012A08BFDA60D3F86425012A0FD176
:10450000082149F64046C3F800155A603B68A3BB32
:104510002B68D3F88024C3F880240022C3F8002538
:1045200000212B6894F83520C3F81011D3F810013E
:10453000C3F82011D3F82001C3F82411D3F82401C3
:10454000C3F84411D3F84401C3F85811D3F85811F3
:1045500043F307335201002BD2B214DB0D49C818C4
:1045600080F800230122580903F01F0302FA03F325
:1045700041F8203002B0BDE8F0870120FFF71AFEB5
:10458000013EC3D1C4E7044903F00F03CA54F1E765
:10459000BCAC002000E100E014ED00E02DE9F347A1
:1045A0009046502290F804904E4C02FB09FA04EB1E
:1045B0000A070D4697F84810064600297ED109EBF8
:1045C000890004EB00100EF096FA2B69AA6944F8F2
:1045D0000A306B69BB6302B1013A502303FB094304
:1045E000DA632A6A042A81BFEA699A610022DA61E1
:1045F00095F83430B8F1000F34D083F001073F0252
:1046000033B1502303FB0943DA6C42F00102DA6450
:10461000502303FB09440123C4F8048084F8483084
:104620003468D4F84C21FAB929463046FFF7EEFE3B
:104630000822002334688DF80730C4F800250DF1F6
:104640000702C4F84425C4F8483501230A25A360AD
:10465000E360D4F858319BBB0120FFF7ABFD013D6F
:10466000F7D125E04746CBE708224FF06409C4F8AC
:1046700000256360D4F84431F3B9D4F82431DBB9B0
:104680000A20FFF797FDB9F10109F3D14B4600224B
:10469000C4F84C21D4F84C11C4F81021D4F81011EE
:1046A000C4F84421D4F84411C4F80025002BBBD130
:1046B0000D4802B0BDE8F0870123E8E70B48F8E7B2
:1046C0000023C4F820319845D4F82021C4F80035DF
:1046D000074B08BF00231F4333680648C3F8047321
:1046E000E7E700BFBCAC00200100AD0B0C00AD0B38
:1046F00010020A000000AD0B2DE9F04784460F467A
:104700009E4616460579002A51D04FF0500ADFF830
:10471000BC80D0F800900AFB058ADAF8044074B92E
:104720006BB9DAF82C50002D43D1CAF82C20FFF7D2
:1047300065FD0446CAF82C502046BDE8F0871EF0FF
:10474000030F07D0734632463946BDE8F04760464E
:10475000FFF754BD07F06043B3F1005F4FF0500422
:1047600014D104FB058400F077FBE26A1AB1134C04
:1047700000F07AFBE0E7C4E90A7605EB85054846D8
:1047800008EB051101F0E5F90D4CF1E704FB058498
:10479000A36B83B100F060FBE36A002BE7D1E36C0D
:1047A000012243F00203C4E90A76E364E5E7054C1D
:1047B000C2E7024CC0E7044CBEE700BF0B00AD0BE4
:1047C0000000AD0B0600AD0B0A00AD0BBCAC002029
:1047D0002DE9F84350230679284D046803FB06535E
:1047E000D4F80473DA6AC4F8087322B92448C4F808
:1047F0000473BDE8F88306EB860005F14C024FEA2E
:10480000001802EB0012D2E8EFCF4CF0080CC2E81F
:10481000E0CF0028F7D10122E26031B3D96C01EA80
:1048200002094946204601F045F90028FAD000F077
:1048300013FBB9F1000F1CD1D4F8203153B101237F
:10484000E360D4F85831002BFBD0204605EB08017B
:1048500001F074F900F008FB0023C4F82031D4F80B
:104860002021502202FB0655EB620648C4F804736F
:10487000BFE7D4F85831002BE7D1EBE7BCAC002000
:104880000500AD0B0000AD0B2DE9F84390F8048056
:104890004A4E08EB88073F0107F14C050468354490
:1048A000D5E8EF3F43F48052C5E8E02F0028F7D168
:1048B000DA047FD44B0705D5502303FB08639B69BB
:1048C000002B79D03E4B3744C4F808330823C4F892
:1048D00000350023C4F81031D4F81021C4F84C314D
:1048E000D4F84C21C4F844310A03D4F844318B0382
:1048F00003F4804302F400524903134301F40041DE
:104900000B43D5E8EF2F1A43C5E8E12F0029F8D172
:104910004FF0500909FB0869D9F80830EBB9D9F80C
:10492000043093B9502303FB0863DB6CD8043FD5F4
:10493000D5E8EF3F23F47F0323F47043C5E8E23F5B
:10494000002AF5D11F48BDE8F8830321384601F05D
:10495000BEF8D9F80830002BE4D0D4F80433590756
:1049600013D5502303FB08635A6872B1DB6C1A033A
:104970000BD5D5E8EF3F23F40023C5E8E23F002A3A
:10498000F7D10621384601F0A2F8502303FB086353
:10499000DB6CDB040CD5D4F84C310BB9012323605C
:1049A000502303FB0866736813B1054BC4F8043346
:1049B0000548C8E70548C6E70548C4E7BCAC002081
:1049C00010020A000200AD0B0000AD0B0B00AD0B96
:1049D0000800AD0B2DE9F84F502390F804905B4E82
:1049E000046803FB09631746DA6CD4F804A3500388
:1049F0008846C4F808A300F1A38001F06041B1F13A
:104A0000005F40F09F80996859B15B68002B40F0CF
:104A10008380D4F8101100297ED0C4F81031D4F866
:104A20001031502505FB0965EA6909EB890BC5E9D9
:104A300002874FEA0B1B002A49D0974235D84FF026
:104A400000093A46A9694046C5E902990EF02EF8D8
:104A5000EA69A869D21BC119EA610DF0F1FF6B6820
:104A600023B93B48C4F804A3BDE8F88FEB6C5E445F
:104A7000990414D5374B5B44D3E8EF1F41F48021F0
:104A8000C3E8E21F002AF7D13A464146304601F01A
:104A90002FF84A4631462046FFF75AFBE1E73A46EF
:104AA0004146304601F024F8DBE74046A9690DF0A5
:104AB000FDFFEB696B620023EB61264B5B44D3E89F
:104AC000EF1F41F40021C3E8E21F002AF7D1502371
:104AD00003FB0963586ADA689968DB6C121A0144AF
:104AE000C4F83415C4F83825DA04BAD5194B5B4438
:104AF000D3E8EF1F21F48021C3E8E21F002AF7D199
:104B000001232360D4F84431002BAAD00023C4F839
:104B10004431D4F84431A4E7502303FB09663369D8
:104B200093B95304C4F83485C6E90487C4F83875CA
:104B300097D5D4F8003243F02003C4F8003290E750
:104B400005488FE705488DE705488BE7BCAC00209A
:104B50000000AD0B08AD00200500AD0B0A00AD0B49
:104B60000B00AD0B50232DE9F0414E4D90F8048021
:104B7000046803FB0853D86CD4F8007200F4822058
:104B8000B0F5805F05D009B10022DA614648BDE882
:104B9000F081D4F80463C4F8086309B9BB0652D4A1
:104BA0004FF4A111D4F8003223F02003C4F80032EE
:104BB000502303FB08574C37D7E8EF0F0843C7E8EB
:104BC000EC0FBCF1000FF7D122B903FB08535B686F
:104BD000002B63D1354BC4F8083301236360D4F84C
:104BE0004431002BFBD00023C4F84C31D4F84C21C5
:104BF000C4F81031D4F81021C4F84431D4F8442159
:104C0000502202FB0852D16C11F400411ED1D16137
:104C1000204600F081FF502303FB08550023AB60C2
:104C20002B61D7E8EF3F23F47F0323F47043C7E8F9
:104C3000E23F002AF5D126F4202626F404761C480B
:104C4000C4F80463A3E74FF48031B1E79269C4F874
:104C50004C31D4F84C11C4F834250522C4F8382559
:104C6000C4F81031D4F810310123E362D4F81031C4
:104C7000002BFBD00023C4F81031D4F81031D4F845
:104C80004C210AB1D4F83C25502303FB0853DA61C8
:104C90000023C4F84C31D4F84C31B9E701236360E8
:104CA000CDE700BFBCAC00200500AD0B10020A0030
:104CB0000000AD0B2DE9F04103682E4A0579C3F8D9
:104CC000082343F30733002B04460DDB01215A0967
:104CD00003F01F03994002F12003274A42F82310F2
:104CE000BFF34F8FBFF36F8F012220461146FFF7AE
:104CF00039FF01212046FFF76BFD236822795024FC
:104D00001E49D3F80C0504FB0212D46CD3F81485A9
:104D1000E201D3F80865D3F8107509D54FF0FF32DA
:104D2000C3F80C25C3F81425C3F80825C3F81025CB
:104D3000A20115D5431C01D0FFF752FBB8F1FF3F8C
:104D400002D04046FFF74CFB200109D57A1C02D067
:104D50003846FFF745FB731C02D03046FFF740FB97
:104D60005023002203FB0513DA6483F848205A60BD
:104D7000BDE8F08110034A0000E100E0BCAC002077
:104D800010B5502402790E4B04FB02335B689BB9CB
:104D90000368D3F80025082A05D011B1D3F83C35B3
:104DA0000B60084810BDD3F810213AB111B1D3F807
:104DB0003C350B600448F5E70448F3E70448F1E7A5
:104DC000BCAC00200C00AD0B0000AD0B0800AD0B1F
:104DD0000B00AD0B2DE9F34105461646FFF7FAFD32
:104DE000184B0446984226D10321284695F80480A2
:104DF000FFF74AFD144FB84201D0A0421FD1502204
:104E0000124B02FB08335B68ABB90193284601A93A
:104E1000FFF7B6FFB842F9D00D4B98420AD0019B7C
:104E2000B34207D301222846114602B0BDE8F04143
:104E3000FFF798BE074C204602B0BDE8F08104465B
:104E4000F9E700BF0000AD0B0B00AD0BBCAC0020C0
:104E50000C00AD0B0800AD0B72B6024A13680133AB
:104E6000136070470CAD0020034A1368013B1360C8
:104E700003B962B6704700BF0CAD00200048704710
:104E8000D47A000008B500F01FF8034B984214BF15
:104E90006FF00400002008BD0000AD0B0022034BA2
:104EA000C3F88425C3F80425704700BF0090035061
:104EB000044AD2F80034DB07FBD50160BFF35F8FF3
:104EC000704700BF0090035008B5C0F30B0383B9CF
:104ED0000222094BC3F88425C3F804254FF0FF32A2
:104EE0000260D3F80024D207FBD5FFF7D7FF0348B1
:104EF00008BD0348FCE700BF009003500000AD0B65
:104F00000A00AD0BF8B51546012206460F460024EF
:104F1000094BC3F88425C3F80425A54203D1BDE895
:104F2000F840FFF7BBBF57F8241006EB8400FFF7EB
:104F3000BFFF0134F1E700BF00900350003A18BFF3
:104F40000122003918BF012103688900074841EA9E
:104F50004201186359605A6842F001025A60BFF377
:104F60004F8FBFF36F8F0020704700BF04AAFF0070
:104F70000722024BC3F80423704700BF00300050E3
:104F8000084BD3F80801D3F80021003818BF0120DE
:104F900080000AB140F00100D3F804310BB140F0B9
:104FA00002007047003000500022074BC3F8002178
:104FB000D3F80011C3F80421D3F80411C3F8082171
:104FC000D3F80831704700BF00300050002317208D
:104FD000094A03F5C0710133402B42F82100F8D192
:104FE00000231720044A03F5E0710133402B42F8F7
:104FF0002100F8D1704700BF0030005010B59DF877
:105000000840800B43EA0423064C890B43EA021351
:10501000884200D910BDC2B202F5C07244F82230F5
:105020000130F5E70030005010B59DF8084000F160
:10503000604043EA042301F16041074C400B490BF7
:1050400043EA0213884200D910BDC2B202F5E072F1
:1050500044F822300130F5E700300050C0F30D0372
:10506000C3F58043B3FA83F3C3F11B03064AC0F3CD
:105070008730DBB240F4807043F48073C2F80005DF
:10508000C2F80435704700BF0030005043030148A8
:1050900018447047FF1FF81F054BC0F30730090283
:1050A00041F0300100F5007043F82010704700BF58
:1050B00000300050044BC0F30730090200F50070C7
:1050C00043F82010704700BF0030005008B5FFF7CC
:1050D00057FF044B162118600348BDE8084000F054
:1050E000ADBC00BFFCB70020EC7A00000C220149E7
:1050F0000DF0DCBCFCB70020F8B502F018FB04464C
:1051000028B906F0F3FC044618B145F223542046B2
:10511000F8BD00F002FE58B93221174800F08EFCAD
:1051200000F036F80028F0D10A21144800F086FC7F
:10513000134A2721D368134823F008031B041B0CD0
:1051400043F0BF6343F40033D36000F077FC0122E7
:105150000C210D4800F056FF002501260B4F06FAE2
:1051600005F39B0704D02A460621384600F04AFF83
:105170000135202DF3D1CAE7027B0000347B00000B
:1051800000ED00E03E7B0000657B0000717B0000CD
:10519000002130B5ADF5177D3C2217A816910DF012
:1051A000AAFC374B02AA03F108051446186859688F
:1051B000083303C4AB422246F7D118689B884FF4EA
:1051C000E07200212060A38026A80DF094FC00F07E
:1051D000A4FD20B12B480DF018FD2B4C1FE002A9B7
:1051E0000D2226A806F0A4FC014618B127480DF0B0
:1051F0000CFD13E006A9402201AB26A806F0DEFC58
:10520000044626A806F0C4FC014614B9019D402DB1
:1052100009D02146019A1E480DF0F7FC1D4C20468E
:105220000DF5177D30BDE8B9022006A900F092F80F
:1052300004460028F3D104200EA900F08BF80446A0
:105240000028ECD101462A4606A80DF054FC2A4657
:1052500016A906A810F060F9044628B10E480DF012
:10526000D4FCDBE70D48C2E7022000F061FD20B16D
:10527000042000F05DFD0028D1D10948ABE700BF54
:10528000A07C0000777B0000FE9AFEFFA87B000058
:10529000D37B0000FD9AFEFF477C00000E7C0000DF
:1052A0007B7C0000F0B585B004460E4617461D46CF
:1052B00000F03EFDA0B10C9B2A4603930B9B4FF4DC
:1052C0008071CDE9017320460A9B009606F09AFC96
:1052D00020B1014603480DF098FC034805B0F0BD2D
:1052E0000248FBE7AE7C0000FC9AFEFFFF9AFEFF3F
:1052F000154A431C1549C2F80035C300C95801318D
:1053000004D00023C2F800350120704703F57F0365
:1053100003F504431B680133F3D100010C4A00F587
:105320007F0303F5084302441968013104D00022C9
:10533000054BC3F80025E7E704339342F4D100207E
:10534000014BC3F800057047009003500484FF0030
:105350001088FF0038B56FF003020D460B460B496D
:10536000044606F04DFC48B9601C6FF00302084982
:1053700005F11003C0B206F043FC28B102462146F5
:1053800004480DF042FC044838BD00BF005484506E
:1053900010548450F47C0000FE9AFEFF024B18600B
:1053A000024B0020196070470CB8002008B800209C
:1053B0001FB5374C426923685A6282699A62C26992
:1053C000DA62026A1A63426A5A63826A9A63C26A3A
:1053D000DA63026B1A64426B5A60826B9A60C26B2A
:1053E000DA60026C1A61426C5A61826C9A61C26C1A
:1053F000DA61026D1A62826D5A65C26D9A65026F3A
:10540000DA65026E1A66826E5A66426F9A66EFF32A
:1054100088825A64EFF389829A644268DA64EFF30F
:1054200094821A65026801A81A67FFF75FFE236875
:10543000019ADA6601221A70164B1C68640864002F
:105440002046214622462346B7EE000AF7EE000A20
:10545000B7EE001AF7EE001AB7EE002AF7EE002AB0
:10546000B7EE003AF7EE003AB7EE004AF7EE004A20
:10547000B7EE005AF7EE005AB7EE006AF7EE006A90
:10548000B7EE007AF7EE007A10F084F804B010BDA1
:105490000CB8002008B8002000B5A1B001A8FEF7A4
:1054A000F9FB029B63B15B060AD4019B23F0020364
:1054B000052B05D1044B1B6813B101A8FFF778FF3A
:1054C00021B05DF804FB00BF08B80020BFF34F8F88
:1054D0000549064BCA6802F4E0621343CB60BFF390
:1054E0004F8F00BFFDE700BF00ED00E00400FA05AC
:1054F000F8B5C0F30B0686B920F47F650A4F25F096
:105500000F054418AC4201D83046F8BD2846FB6967
:10551000984728B905F58055F4E74AF2C536F3E710
:1055200043F65C26F0E700BFA87A00002DE9F74FAC
:10553000DFF868A08346DAF804300F46154698472E
:105540000024154BC0F3410013F82090DFF8508081
:1055500004F18003AB4294BF80262E1BB6FBF9F208
:105560004146DAF8143004EB0B000192984700280A
:105570000EDB4146DAF81830019AE0199847002806
:1055800006DB3444A542E3D8002003B0BDE8F08F29
:1055900043F65C20F9E700BF287D0000A87A0000F0
:1055A000D8C200202DE9F3471B4D81466B680F469A
:1055B00014469847194BC0F3410013F820A0B9FBDB
:1055C000FAF60AFB16961EBB6CB1D5F81480B4FB34
:1055D000FAF509F578292A4639464846C047002891
:1055E00005DA43F65C26304602B0BDE8F0870AFBD8
:1055F00005F5641BF7D0012201A909EB0500C0479E
:105600000028EEDB224601A978190DF04FFAEAE7EF
:105610004AF2C536E7E700BFA87A0000287D0000FF
:105620002DE9F04F861806F6FF7525F47F6525F005
:105630000F0585B0B5F5805F0446019104D943F6A6
:105640005C2005B0BDE8F08FDFF87881D8F8043031
:1056500098470422584BC0F3410053F82070D8F803
:10566000143056480093FBB2B2FBF3F203A9009B3F
:105670009847039A531C023208BF01230393002D5D
:1056800034D024F47F6B2BF00F0BA5EB0B010BF543
:105690007820FFF72DFF0028D3D1B5F5BE7FAA46AD
:1056A00028BF4FF4BE7ADA4529D8B5F5BE7F5ED360
:1056B000FBB20427B7FBF3F7414D3A4629463F4872
:1056C000009B9847B6F5BE7F5CD8042203A93C48EE
:1056D0000DF0ECF93B4B3A4639493B489B699847FA
:1056E00008B18742ABD100F0FCFBAAE74FF4805130
:1056F0004FF47820FFF7FCFE0028C2D0A1E70BF1A1
:1057000080039A452CBF4FF08009AAEB0B095FFA82
:1057100087F8B9FBF8F82A494246009B0BF5792037
:1057200098475E4516D909EB0B039C4212D2A3455C
:105730005A4638BF2246111BA2EB0B009E4294BF73
:10574000C2EB0602C2EB0302019B19441C4B184436
:105750000DF0ACF91B4B42469B6919490BF57820BB
:10576000984710B180457FF46AAFCB449BE74FF474
:10577000BE724FF478214FF47920FFF7D7FE00284E
:1057800096D05EE7B4F5C07F9FD2B4F5BE7F2246C7
:1057900038BF4FF4BE72019B111BA2F5BE700B44C3
:1057A000B6F5C07F94BFC2EB0602C2F5C0721946BF
:1057B00028440DF07BF988E7287D00007C910F00DC
:1057C000D8C20020A87A00007C810F002DE9F041AA
:1057D0004F4F86B00020BB68984700286ED1042246
:1057E0006946FFF7DFFE0446002875D104224FF416
:1057F000BE700DEB0201FFF7D5FE044600286BD109
:10580000444D009BAB4203D1019B013B033367D95D
:105810007B689847404BC0F3410053F82060042256
:105820004FF4805004A9FFF7BDFE0446002853D171
:10583000042241F27C1005A9FFF7B4FE04460028BB
:105840004AD1049B4FF48051AB424FF4782012D1DF
:10585000059B013B03330ED8FFF74AFE04460028A0
:105860003AD14FF480524FF478214FF47920FFF76A
:105870005DFE044630E0FFF73BFE044660BB014698
:10588000802226480DF037F9F3B28026B6FBF3F6F6
:10589000DFF8888004F5782032464146BB698034C1
:1058A0009847B4F5805FF5D300F01BFB044698B928
:1058B000042202A90295FFF7B3FE10B143F65C245F
:1058C0000AE0012304224FF4BE7003A90393FFF7FB
:1058D000A7FE04460028F1D1204606B0BDE8F081BD
:1058E000042241F27C1005A9FFF75CFE0446002863
:1058F000F2D1059B5A1E033206D8019A934203D374
:105900000233E9D1012AE7D100F0EBFAB1E700BF99
:10591000A87A00001281DEC0287D0000D8C20020D5
:105920001E2811D801230A4A8340134208D113F0DC
:10593000980F07D11D2807D1402300200B60704726
:105940002023FAE70423F8E74CF25A30704700BFEF
:10595000650F0040F8B543680C2B26D14B68042B2B
:1059600023D14FF0FF3304680E6821683360E1B142
:10597000A268D2B10623012001F01CFDA8B961681C
:105980000B4BD3E9005CA9420AD3A26865448F1887
:10599000AF4205D820680DF089F800203060F8BDCE
:1059A0000130052803F10803EBD10220F7E700BF1F
:1059B000347D0000436870B50C2B32D14B68042B4A
:1059C0002FD14FF0FF3306680C683068236050BB5E
:1059D0007268550903D0012D1CD14FF6FF7302F0F8
:1059E0001F02D340D90719D5B168072916D88B23D0
:1059F000CB40DB0712D57DB1012D16D10D4B03EB4A
:105A00008203D3F8002222F0E04242EA0172C3F896
:105A100000220023236070BD074BF0E74FF0FF33F7
:105A2000F8E70220F7E70320F5E70023803253F878
:105A30002230FFDE0028845000258450FEF7BCB9D8
:105A4000012070476FF003007047002382B001937C
:105A5000019802B070476FF003007047002382B0D6
:105A60000193019802B07047022814BF6FF0030041
:105A700000207047FEF71EBA30B501EB820291425A
:105A800000D130BD51F8044B04F07F037F2B4FEA67
:105A9000144408BF4FF0FF33032CF0D8DFE804F0C4
:105AA000020406080360EAE74360E8E78360E6E78C
:105AB000C360E4E70346D0F8580130B931B9D3F8F0
:105AC0002001003818BF012070470120704730B511
:105AD00004460D4685B01022002168460DF00BF8F3
